:100000000C945D000C9485000C9485000C94850084
:100010000C9485000C9485000C9485000C9485004C
:100020000C9485000C9485000C9485000C9485003C
:100030000C9485000C9485000C9485000C9485002C
:100040000C9422030C9485000C94F0020C94CA02C8
:100050000C9485000C9485000C9485000C9485000C
:100060000C9485000C9485000000000024002700FB
:100070002A0000000000250028002B0004040404CE
:100080000404040402020202020203030303030342
:10009000010204081020408001020408102001021F
:1000A00004081020000000080002010000030407FB
:1000B0000000000000000000D80411241FBECFEF94
:1000C000D8E0DEBFCDBF11E0A0E0B1E0E8E6FAE0A5
:1000D00002C005900D92AE33B107D9F721E0AEE32F
:1000E000B1E001C01D92A03FB207E1F710E0CDE5FD
:1000F000D0E004C02197FE010E942705CC35D1072E
:10010000C9F70E946C030C9432050C940000E1EBDB
:10011000F0E02491EDE9F0E09491E9E8F0E0E49179
:10012000EE2309F43BC0222339F1233091F038F457
:100130002130A9F0223001F524B52F7D12C02730DF
:1001400091F02830A1F02430B9F4209180002F7D67
:1001500003C0209180002F77209380000DC024B52C
:100160002F7724BD09C02091B0002F7703C02091C4
:10017000B0002F7D2093B000F0E0EE0FFF1FEE588F
:10018000FF4FA591B4912FB7F894EC91811103C062
:1001900090959E2301C09E2B9C932FBF0895E091C4
:1001A0005301F09154010190F081E02D682F83E517
:1001B00091E00994CF92DF92EF92FF920F931F93F9
:1001C000CF93DF936C017A018B01C0E0D0E0CE15B4
:1001D000DF0589F0D8016D918D01D601ED91FC917B
:1001E0000190F081E02DC6010995892B11F47E0163
:1001F00002C02196ECCFC701DF91CF911F910F91E3
:10020000FF90EF90DF90CF900895089580E090E008
:100210000895FC01538D448D252F30E0842F90E00C
:10022000821B930B541710F0CF96089501970895F1
:10023000FC01918D828D981761F0828DDF01A80FEE
:10024000B11D5D968C91928D9F5F9F73928F90E010
:1002500008958FEF9FEF0895FC01918D828D98177F
:1002600031F0828DE80FF11D858D90E008958FEFBC
:100270009FEF0895FC01918D228D892F90E0805C85
:100280009F4F821B91098F739927089583E591E011
:100290000E943A0121E0892B09F420E0822F089581
:1002A000FC01848DDF01A80FB11DA35ABF4F2C9113
:1002B000848D90E001968F739927848FA689B789E2
:1002C0002C93A089B1898C9180648C93938D848DBB
:1002D000981306C00288F389E02D80818F7D80838A
:1002E0000895EF92FF920F931F93CF93DF93EC014A
:1002F00081E0888F9B8D8C8D981305C0E889F989E2
:10030000808185FD24C0F62E0B8D10E00F5F1F4FFE
:100310000F731127E02E8C8DE8120CC00FB607FC6E
:10032000FACFE889F989808185FFF5CFCE010E9457
:100330005001F1CF8B8DFE01E80FF11DE35AFF4F05
:10034000F0820B8FEA89FB898081806207C0EE8989
:10035000FF896083E889F98980818064808381E0F6
:1003600090E0DF91CF911F910F91FF90EF90089552
:10037000CF93DF93EC01888D8823C9F0EA89FB894C
:10038000808185FD05C0A889B9898C9186FD0FC043
:100390000FB607FCF5CF808185FFF2CFA889B98918
:1003A0008C9185FFEDCFCE010E945001E7CFDF9108
:1003B000CF91089580E090E0892B29F00E944601BA
:1003C00081110C94000008953FB7F8948091430187
:1003D00090914401A0914501B091460126B5A89B9A
:1003E00005C02F3F19F00196A11DB11D3FBFBA2FC7
:1003F000A92F982F8827820F911DA11DB11DBC0127
:10040000CD0142E0660F771F881F991F4A95D1F7EB
:1004100008958F929F92AF92BF92CF92DF92EF9208
:10042000FF926B017C010E94E4014B015C01C1144D
:10043000D104E104F104F1F00E94E401DC01CB01FC
:1004400088199909AA09BB09883E9340A105B105FD
:1004500070F321E0C21AD108E108F10888EE880E95
:1004600083E0981EA11CB11CC114D104E104F10465
:1004700019F7DDCFFF90EF90DF90CF90BF90AF9056
:100480009F908F900895009769F0FC0101900020E3
:10049000E9F73197AF01481B590BBC0183E591E0A7
:1004A0000C94DA0080E090E008958F929F92AF92D2
:1004B000BF92CF92DF92EF92FF920F931F93CF9351
:1004C000DF93CDB7DEB7A1970FB6F894DEBF0FBEAE
:1004D000CDBF6C01990FEE08FF08F7FE29C08DE231
:1004E0000E94CF008C0122273327A9012C193D0936
:1004F0004E095F0919A2CE0181967C019AE0892EEE
:10050000912CA12CB12CCA01B901A50194010E9422
:100510000505605DF70162937F01211531054105F5
:10052000510589F7CF010E944302800F911F1DC022
:10053000A701960119A28E010F5D1F4F8AE0C82EF8
:10054000D12CE12CF12CCA01B901A70196010E941E
:100550000505605DF80162938F01211531054105A4
:10056000510589F7CF010E944302A1960FB6F89476
:10057000DEBF0FBECDBFDF91CF911F910F91FF90D6
:10058000EF90DF90CF90BF90AF909F908F900895A5
:100590000E942D051F920F920FB60F9211242F93D8
:1005A0003F934F935F936F937F938F939F93AF93FB
:1005B000BF93EF93FF9383E591E00E945001FF9179
:1005C000EF91BF91AF919F918F917F916F915F91CB
:1005D0004F913F912F910F900FBE0F901F90189544
:1005E0001F920F920FB60F9211242F938F939F9308
:1005F000EF93FF93E0916301F09164018081E091BA
:100600006901F0916A0182FD12C0908180916C01B4
:100610008F5F8F7320916D01821751F0E0916C0113
:10062000F0E0ED5AFE4F958F80936C0101C0808100
:10063000FF91EF919F918F912F910F900FBE0F908F
:100640001F9018951F920F920FB60F9211242F939F
:100650003F938F939F93AF93BF9380913F0190916E
:100660004001A0914101B091420130913E0123E04F
:10067000230F2D3720F40196A11DB11D05C026E8DA
:10068000230F0296A11DB11D20933E0180933F01CF
:1006900090934001A0934101B093420180914301A6
:1006A00090914401A0914501B09146010196A11D90
:1006B000B11D8093430190934401A0934501B093F1
:1006C0004601BF91AF919F918F913F912F910F90D4
:1006D0000FBE0F901F901895789484B5826084BDEA
:1006E00084B5816084BD85B5826085BD85B5816036
:1006F00085BD80916E00816080936E0010928100B4
:10070000809181008260809381008091810081606E
:10071000809381008091800081608093800080912F
:10072000B10084608093B1008091B00081608093BB
:10073000B00080917A00846080937A0080917A0082
:10074000826080937A0080917A00816080937A0041
:1007500080917A00806880937A001092C100E091C5
:100760006301F091640182E08083E0915F01F09188
:1007700060011082E0916101F091620180E180836B
:1007800010926B01E0916701F091680186E080832F
:10079000E0916501F0916601808180618083E09144
:1007A0006501F0916601808188608083E091650138
:1007B000F0916601808180688083E0916501F0910D
:1007C000660180818F7D8083EDE9F0E02491E9E886
:1007D000F0E08491882399F090E0880F991FFC0144
:1007E000E859FF4FA591B491FC01EE58FF4F859158
:1007F00094918FB7F894EC91E22BEC938FBFC2E009
:10080000D0E083E591E00E943A0118161906CCF574
:1008100083E591E00E94180180934C0120915101E1
:10082000309152012230310524F010925201109281
:10083000510120914A0130914B01233031050CF0D8
:1008400055C090ED980F9A3008F050C02F5F3F4F81
:1008500030934B0120934A01409148015091490146
:100860009AE0949F9001959F300D1124082E000C62
:10087000990BC097820F931F909349018093480171
:1008800032C08091510190915201029761F580919F
:100890004D0190914E010E94550280E20E94CF00CE
:1008A00080914F01909150010E9455028AE00E9470
:1008B000CF0000914D0110914E0181E00E94870010
:1008C000B801110F880B990B0E94090200914F018A
:1008D0001091500180E00E948700B801110F880B31
:1008E000990B0E9409020E94DA018BCF803239F500
:1008F000809147018111F7CF23303105A1F781E0C5
:100900008093470110924B0110924A01809151014E
:1009100090915201FC01EE0FFF1FE35BFE4F20910F
:10092000480130914901318320831092490110928E
:10093000480101969093520180935101D4CF8A309F
:1009400091F62330310531F480915101909152019B
:100950000197B9F010924B0110924A01109249018F
:1009600010924801109252011092510110924701C9
:1009700082E191E00E9443028AE391E00E944302F7
:10098000B2CF10924B0110924A0180914801909190
:1009900049019093500180934F01109249011092A8
:1009A0004801D0935201C0935101109247019BCF4F
:1009B000E3E5F1E01382128288EE93E0A0E0B0E07C
:1009C00084839583A683B78384E091E091838083B9
:1009D00085EC90E09587848784EC90E09787868704
:1009E00080EC90E0918B808B81EC90E0938B828BFC
:1009F00082EC90E0958B848B86EC90E0978B868BD5
:100A0000118E128E138E148E0895A1E21A2EAA1B37
:100A1000BB1BFD010DC0AA1FBB1FEE1FFF1FA217AE
:100A2000B307E407F50720F0A21BB30BE40BF50BAB
:100A3000661F771F881F991F1A9469F76095709534
:100A4000809590959B01AC01BD01CF010895EE0FFB
:100A5000FF1F0590F491E02D099481E090E0F89457
:080A60000C943205F894FFCF5D
:100A6800000000007101DA000901B8013A0118011B
:100A78002C014E69657072617769646C6F777920B3
:100A8800696E7075742E20506F64616A20696E6E8D
:0E0A980065206C69637A62792E000D0A0000F9
:00000001FF
