:100000000C94E4000C940C010C940C010C940C0165
:100010000C940C010C940C010C940C010C940C012C
:100020000C940C010C940C010C940C010C940C011C
:100030000C940C010C940C010C940C010C940C010C
:100040000C9479200C940C010C94E9200C94C3209E
:100050000C940C010C940C010C940C010C940C01EC
:100060000C940C010C940C0100407A10F35A00A07F
:10007000724E18090010A5D4E80000E87648170071
:1000800000E40B54020000CA9A3B000000E1F505B1
:10009000000080969800000040420F000000A086FB
:1000A00001000000102700000000E803000000002D
:1000B0006400000000000A000000000001000000D1
:1000C00000002C76D888DC674F0823DFC1DFAE59EB
:1000D000E1B1B796E5E3E453C63AE651997696E87E
:1000E000E6C28426EB898C9B62ED407C6FFCEFBC02
:1000F0009C9F40F2BAA56FA5F490055A2AF75C932D
:100100006B6CF9676DC11BFCE0E40D47FEF520E662
:10011000B500D0ED902E0300943577050080841E45
:10012000080000204E0A000000C80C333333330FA0
:10013000986E12831141EF8D2114893BE65516CF3D
:10014000FEE6DB18D1844B381BF77C1D901DA4BB49
:10015000E424203284725E228100C9F124ECA1E5FE
:100160003D270001020304051112131415160A0B92
:100170000C0D0E0F00000008000201000003040730
:100180000000000000000000000000002500280022
:100190002B0000000000240027002A0004040404AF
:1001A0000404040402020202020203030303030321
:1001B00001020408102040800102040810200102FE
:1001C000040810201B21652811241FBECFEFD8E0A2
:1001D000DEBFCDBF12E0A0E0B1E0EAE5F1E602C08B
:1001E00005900D92A23FB107D9F726E0A2EFB2E049
:1001F00001C01D92AF30B207E1F710E0C3EED0E0CE
:1002000004C02197FE010E94882FC23ED107C9F782
:100210000E949B220C94A0300C94000090E0FC0102
:10022000E055FE4F249184569E4FFC018491882313
:1002300099F090E0880F991FFC01EE56FE4FA591B2
:10024000B491FC01E857FE4F859194918FB7F894D3
:10025000EC91E22BEC938FBF08958CBD9DBD08956A
:10026000FC01408151818281823040F081E08383B2
:1002700080E051834083828381E008952091D205FC
:100280003091D305B9016423752380919404909132
:1002900095046817790739F04091CF055091D00542
:1002A0008091D105E6CFC9018095909563E0880FD4
:1002B000991F6A95E1F784239523892B41F083E008
:1002C000220F331F8A95E1F727604223532385E0ED
:1002D000D0CF8230910538F0880F991F880F991F71
:1002E00005970197F1F7089590E0FC01EC58FE4F57
:1002F0002491FC01E055FE4F3491FC01E456FE4F81
:10030000E491EE23C9F0222339F0233001F1A8F45F
:10031000213019F1223029F1F0E0EE0FFF1FE857EC
:10032000FE4FA591B4918FB7F894EC91611126C05E
:1003300030953E233C938FBF08952730A9F0283095
:10034000C9F0243049F7809180008F7D03C08091EF
:1003500080008F7780938000DFCF84B58F7784BD56
:10036000DBCF84B58F7DFBCF8091B0008F778093FA
:10037000B000D2CF8091B0008F7DF9CF3E2BDACF85
:100380003FB7F8948091F8029091F902A091FA0297
:10039000B091FB0226B5A89B05C02F3F19F001962E
:1003A000A11DB11D3FBFBA2FA92F982F8827BC01CF
:1003B000CD01620F711D811D911D42E0660F771FF7
:1003C000881F991F4A95D1F708958F929F92AF92F7
:1003D000BF92CF92DF92EF92FF926B017C010E945D
:1003E000C0014B015C01C114D104E104F104B9F076
:1003F0000E94C001681979098A099B09683E734007
:100400008105910580F321E0C21AD108E108F108C5
:1004100088EE880E83E0981EA11CB11CE4CFFF90EB
:10042000EF90DF90CF90BF90AF909F908F90089506
:100430002FB7F8946091F4027091F5028091F60262
:100440009091F7022FBF08950895AF92BF92CF9277
:10045000DF92EF92FF920F931F93CF93DF936C0184
:100460007B018B01040F151FEB015E01AE18BF0865
:10047000C017D10759F06991D601ED91FC91019017
:10048000F081E02DC6010995892B79F7C501DF912F
:10049000CF911F910F91FF90EF90DF90CF90BF9081
:1004A000AF900895FC01538D448D252F30E0842FAB
:1004B00090E0821B930B541710F0CF96089501978C
:1004C0000895FC01918D828D981761F0A28DAE0F79
:1004D000BF2FB11D5D968C91928D9F5F9F73928F00
:1004E00090E008958FEF9FEF0895FC01918D828D2C
:1004F000981731F0828DE80FF11D858D90E00895F9
:100500008FEF9FEF0895FC01918D228D892F90E050
:10051000805C9F4F821B91098F73992708958EE10C
:1005200093E00E94830221E0892B09F420E0822FCE
:10053000089580E090E0892B29F00E948F028111BC
:100540000C9400000895FC01A48DA80FB92FB11DD3
:10055000A35ABF4F2C91848D90E001968F739927F9
:10056000848FA689B7892C93A089B1898C918370D7
:1005700080648C93938D848D981306C00288F389D0
:10058000E02D80818F7D80830895EF92FF920F93FD
:100590001F93CF93DF93EC0181E0888F9B8D8C8D2F
:1005A00098131AC0E889F989808185FF15C09FB723
:1005B000F894EE89FF896083E889F98980818370E6
:1005C000806480839FBF81E090E0DF91CF911F9195
:1005D0000F91FF90EF900895F62E0B8D10E00F5FB6
:1005E0001F4F0F731127E02E8C8D8E110CC00FB68C
:1005F00007FCFACFE889F989808185FFF5CFCE0124
:100600000E94A302F1CFEB8DEC0FFD2FF11DE35AF9
:10061000FF4FF0829FB7F8940B8FEA89FB898081A6
:100620008062CFCFCF93DF93EC01888D8823B9F020
:10063000AA89BB89E889F9898C9185FD03C08081ED
:1006400086FD0DC00FB607FCF7CF8C9185FFF2CF6A
:10065000808185FFEDCFCE010E94A302E9CFDF911B
:10066000CF910895FC0120812EBD9B0121503109BD
:1006700041F051810DB407FEFDCF4EB55EBD4193F3
:10068000F5CF61507109860F971F0DB407FEFDCF9E
:100690002EB5FC0120830895E0911903F0911A030F
:1006A000808190911803892B80830895E09119032C
:1006B000F0911A039081809118038095892380839B
:1006C000089590E020911B03233339F40C96982F62
:1006D000990F990F990F80E008954896F8CF0895E3
:1006E000CF93DF931F92CDB7DEB76983DC01ED9125
:1006F000FC910280F381E02D41E050E0BE016F5F8C
:100700007F4F09950F90DF91CF910895FC01818D66
:10071000928D08950895FC01208131818281938119
:100720002817390719F0822F0C9474010895CF937C
:10073000DF93EC018CB58F7D8CBD8CB5837F8CBD38
:100740008CB58C7F8CBD8DB581608DBD8A810E94FA
:1007500074018C899D89DF91CF910C94690161E0CE
:100760000C94970360E00C9497038EBD00000DB4C9
:1007700007FEFDCF8EB50895AF92BF92CF92DF9264
:10078000EF92FF920F931F93CF93DF93CDB7DEB716
:1007900028970FB6F894DEBF0FBECDBF8C017B014A
:1007A0006A0180911B038333E1F45801A40EB51E46
:1007B000A016B10609F46FC00E94560380EF0E9494
:1007C000B503812F0E94B503802F0E94B5030F5FF0
:1007D0001F4FF70181917F010E94B5030E944C03D6
:1007E000E7CF5B01A40EB51E8433C1F40E9456030B
:1007F00019830A838D2D80688B83CC8264E070E03E
:10080000CE0101960E943203AE14BF0409F441C028
:10081000F70181917F010E94B503F6CF0E94560334
:100820000F3F110509F028F419820A8384E08B83B5
:100830000CC017FD17C019820A8333E0169507957F
:100840003A95E1F7007E0C600B8386E0C816D10470
:10085000A0F5F701DE011496EA15FB0599F08191E8
:100860008D93FACFC80126E0969587952A95E1F7F2
:10087000807E19830A830115104C10F48461D7CF50
:100880008C61D5CFB6016D5F7F4FCE0101960E947E
:1008900032030E944C03C60128960FB6F894DEBFBF
:1008A0000FBECDBFDF91CF911F910F91FF90EF90C1
:1008B000DF90CF90BF90AF90089563E070E0CE01DD
:1008C00001960E943203F70181917F010E94B503D6
:1008D000AE14BF04C1F7DDCFCF93DF931F92CDB726
:1008E000DEB7898341E050E0BE016F5F7F4F90E04B
:1008F00080E00E94BC030F90DF91CF910895DA0150
:10090000E0911C03F0E0FE2FEE27E60FF71F90E0CA
:10091000982F8827A901BD018E0F9F1F0C94BC033F
:10092000CF93DF9300D0CDB7DEB779836A8322E01F
:1009300030E0AE014F5F5F4F64E070E00E947F04E3
:100940000F900F90DF91CF910895DF92EF92FF9279
:100950000F931F93CF93DF9300D0CDB7DEB7FB018A
:10096000DC0157961C921E9256972281211109C0D4
:100970002381211106C02481211103C02581222356
:1009800069F14115510551F17A018F01FC01D08CBB
:1009900080E591E00E942D01A8014E5F5F4F24E0A9
:1009A00030E06CE070E08D2D0E947F04F982EA82D5
:1009B00022E030E0AE014F5F5F4F60E170E08D2DCF
:1009C0000E947F0481E090E00F900F90DF91CF9123
:1009D0001F910F91FF90EF90DF90089580E0F3CF8B
:1009E000CF93DF931F92CDB7DEB720911C0330E089
:1009F000322F2227260F371F90E0982F8827498310
:100A000041E050E0BE016F5F7F4F820F931F0E9455
:100A1000BC030F90DF91CF9108951F93CF93DF9385
:100A2000EC01162F0E94B203812F0E94B503182FEC
:100A3000CE010E94AF03812FDF91CF911F910895C6
:100A400061EE0C940D050F931F93CF93DF938C01F0
:100A5000C62FD42F0E94B2038C2F8F7180620E9408
:100A6000B503C82F8D2F0E94B503C8010E94AF03A4
:100A70008C2FDF91CF911F910F910895CF92DF922C
:100A8000EF92FF920F931F93CF93DF937C01C62FBA
:100A90006A01122F0E94B2038C2F8F7180620E9414
:100AA000B503082FE601115020F089910E94B5038B
:100AB000FACFC7010E94AF03802FDF91CF911F9122
:100AC0000F91FF90EF90DF90CF9008951F93CF93F9
:100AD000DF93EC01162F0E94B203812F0E94B50311
:100AE0008FEF0E94B503182FCE010E94AF03812F14
:100AF000DF91CF911F9108951F93CF93DF93EC0166
:100B0000162F61E00E946605482F112341F04160D5
:100B100061E0CE01DF91CF911F910C9423054E7FB0
:100B2000F7CFCF93DF93EC0160E00E94660581FD73
:100B30000EC0482F426060E0CE010E94230565E0B0
:100B400070E080E090E0DF91CF910C94E501DF91BF
:100B5000CF910895CF93DF93EC0160E00E948B0367
:100B6000888999890E9469016DE1CE010E9466051C
:100B700081FF07C0888999890E946901CE010E947E
:100B8000200560E0CE010E946605482F4E7F60E0A0
:100B9000CE010E94230562E0CE010E946605E2E6D6
:100BA000F1E0E49141E050E001C0440FEA95EAF73A
:100BB000482B62E0CE01DF91CF910C942305CF93B7
:100BC000DF93EC010E94910560E0CE010E94660572
:100BD000482F416060E0CE010E94230540E767E0B6
:100BE000CE010E94230561E0CE010E948B0389851E
:100BF000882399F02E85AE01475F5F4F6AE0CE01F2
:100C00000E943E056DE1CE010E94660581FF1AC07B
:100C1000CE01DF91CF910C94200562E0CE010E94BD
:100C20006605E2E6F1E0E49121E030E001C0220F48
:100C3000EA95EAF72095422F482362E0CE010E9410
:100C40002305E0CFDF91CF910895CF93DF93CDB708
:100C5000DEB728970FB6F894DEBF0FBECDBFAC014C
:100C60009CEC99839A839B839C839D831E821F8225
:100C700018869A01E1E021153105C9F0611103C020
:100C80004115510569F4D901A770BB27AB5EBE4F72
:100C90008C91A1E0B0E0AC0FBD1FAE0FB11D8C93E5
:100CA00083E0369527958A95E1F7EF5FE4CF6111F0
:100CB00002C0452BB9F4E62FF0E0EB5EFE4F8081D9
:100CC000898329813A814B815C816D817E818F810D
:100CD000988528960FB6F894DEBF0FBECDBFDF9182
:100CE000CF910895F0E0EC5EFE4F80818A83E9CFDA
:100CF000CF93CFB7F8948091F202811124C0E6EA35
:100D0000F1E08491EAEBF1E09491E82FF0E0EE0F4E
:100D1000FF1FEE56FE4FA591B491EC91E92321F40B
:100D200061E08AE00E9474018AE00E940E018CB5A5
:100D300080618CBD8CB580648CBD8DE00E940E01FD
:100D40008BE00E940E018091F2028F5F8093F2028D
:100D5000CFBFCF910895FC01848595850895FC014E
:100D600084899589089526E631E0FC01318320834A
:100D7000FB014089518962897389FC014283538355
:100D8000648375830895DC01ED91FC91048CF58DED
:100D9000E02D099490E080E008954F925F926F9269
:100DA0007F928F929F92AF92BF92CF92DF92EF92FB
:100DB000FF92CF93DF93EC014A015B010E9418027E
:100DC0006B017C01240135018FE5480E511C611C2B
:100DD000711C67E1CE010E94660584FD44C06FEF7F
:100DE000CE010E940D0584FF2FC040E167E0CE01D7
:100DF0000E94230560E0CE010E948B0361E0CE01DA
:100E00000E948B030E9418026C197D098E099F09AC
:100E1000681579058A059B05B8F060E0CE010E944F
:100E20008B03CE010E94200580E0DF91CF91FF90DF
:100E3000EF90DF90CF90BF90AF909F908F907F907A
:100E40006F905F904F9008950E9418026C197D0971
:100E50008E099F09461657066806790608F0B9CF2D
:100E600081E08F87E1CF60E0CE010E948B0381E0BB
:100E7000DCCF8F929F92AF92BF92CF92DF92EF9290
:100E8000FF920F931F93CF93DF93CDB7DEB72897D1
:100E90000FB6F894DEBF0FBECDBF142F0E942506FB
:100EA00069014A015B017C0180918C0482FD06C0CE
:100EB00080919104909192040E94AA0580919104DE
:100EC0009091920460E0111101C061E00E947C05E4
:100ED0000091910410919204C982DA828B829C82E3
:100EE000AD82BE82EF82F886F8012685AE014F5FA3
:100EF0005F4F6AE0C8010E943E05F8012685AE01F9
:100F00004F5F5F4F60E1C8010E943E05F8014781D5
:100F100061E1C8010E94230500919104109192049F
:100F2000E09096040E9418024B015C016FEFC8012B
:100F30000E940D0580FF4AC06FEFC8010E940D0599
:100F400084FF34C040E167E0C8010E94230510E03F
:100F500080918C0482FD16C040916304509164041A
:100F6000609165047091660480919104909192045F
:100F70000E94CD06182F60E0809191049091920418
:100F80000E947C05812F28960FB6F894DEBF0FBE15
:100F9000CDBFDF91CF911F910F91FF90EF90DF9028
:100FA000CF90BF90AF909F908F9008950E941802AD
:100FB000681979098A099B096036710581059105CF
:100FC00008F4B4CF81E0F8018787C1CFF801F7803A
:100FD000FE1408F4EF2CF8018085FE188111F12C25
:100FE000C8010E94B20380EA0E94B50389E6A82ED8
:100FF00084E0B82EEA94FFEFEF1631F0F50181910D
:101000005F010E94B503F6CFFA94FFEFFF1621F0BF
:1010100080E00E94B503F8CFC8010E94AF0361E0F1
:10102000C8010E948B0311E093CF2F923F924F9201
:101030005F926F927F928F929F92AF92BF92CF9268
:10104000DF92EF92FF920F931F93CF93DF93CDB771
:10105000DEB7CE54D1090FB6F894DEBF0FBECDBFB8
:101060007C012F967FAF6EAF2F973A01DC0114966B
:101070000C9114978C91B0E18B9FC0011124807367
:101080008064902F9F70892B8983F70181818A83E7
:10109000808591859B838C83628173816115710545
:1010A00009F472C0003108F06FC010E0A801CE0151
:1010B00005960E944B30E5E0F0E0EC0FFD1FE00FDD
:1010C000F11F0C5F1F4F4701512C412C50E040E0B5
:1010D000D7011A968C911A978415150409F00CF40F
:1010E00077C0D4011C968C911C97A82EB12C980126
:1010F0002B5F3F4F2A0D3B1D2634310508F0DAC027
:101100001B962C90312C9101241B350BA90170E00A
:1011100060E04D30510561057105D8F5B22F982F6B
:101120008D3008F09DE0A22FA295A07FA92BA0836F
:10113000BD30E9F56F0142E0C40ED11C2D50218372
:101140000F5F1F4F9D3041F48D50F60180830F5F7C
:101150001F4FC60101966C01D4011D966D917C91C3
:10116000A501C6010E944B30F601EA0DFB1DBFEF41
:10117000AB1ABB0A0A0D1B1D2FEF421A520A44E09C
:10118000840E911CA101A4CF04E010E0FE0135966D
:101190009ACF4D30B1E05B076105710508F497C047
:1011A0008D3008F49AC09DEE90839DE003C0BE3060
:1011B00009F083C04D5051406109710951836F019D
:1011C000A3E0CA0ED11C2D5022830E5F1F4FBACF51
:1011D00017964C911797442389F050E0CA01019665
:1011E000080F191F0634110508F064C08FEF8193B2
:1011F00015966D917C91CF010E944B308091F10347
:101200009091F203DC01ED91FC910488F589E02DC9
:1012100026E631E029963FAF2EAF29972F96AEAD47
:10122000BFAD2F9712964D915D916D917C91159761
:101230002D964CAF5DAF6EAF7FAF2D97A301BE0172
:10124000695B7F4F09958091F1039091F203DC0176
:10125000ED91FC910280F381E02DA801BE016F5F4A
:101260007F4F09958091F1039091F203DC01ED919C
:10127000FC91008CF18DE02D0995F7018085918519
:10128000C25BDF4F0FB6F894DEBF0FBECDBFDF915C
:10129000CF911F910F91FF90EF90DF90CF90BF9073
:1012A000AF909F908F907F906F905F904F903F9006
:1012B0002F90089590E080E0E3CF6F012FEFC21AE6
:1012C000D20A40CF982F906D9083982F33CF8D30D6
:1012D000C8F3ADEDA0839DE02DCF982F906E908345
:1012E000982F68CF8F929F92AF92BF92CF92EF923A
:1012F0000F93CF93DF93CDB7DEB7EB970FB6F8948C
:10130000DEBF0FBECDBF2896EFAD2897E982CA8217
:101310009C828B82ED833F832E8308875A8749877F
:10132000BAAEABAE2CE02C8722E02D879E01265C66
:101330003F4F3F872E8721E02B8726E631E03DABEC
:101340002CABFC0182819381A481B5818EAB9FABD4
:10135000A8AFB9AFAB01BE016C5C7F4FCE01019667
:101360000E941508EB960FB6F894DEBF0FBECDBFF6
:10137000DF91CF910F91EF90CF90BF90AF909F9062
:101380008F9008958F929F92AF92BF92CF92DF92EB
:10139000EF92FF920F931F93CF93DF9300D000D073
:1013A00000D0CDB7DEB7E6E6F1E0FA83E983FC01D1
:1013B00082819381A481B5818B839C83AD83BE831D
:1013C0001F930F934901B12CA12C85E4C82ED12C79
:1013D00092E0E92EF12C10E000E030E020E0CE01B8
:1013E00001960E9472090F900F9026960FB6F894FE
:1013F000DEBF0FBECDBFDF91CF911F910F91FF9048
:10140000EF90DF90CF90BF90AF909F908F90089516
:10141000CF92DF92EF92FF920F931F93CF93DF93C0
:1014200000D000D000D0CDB7DEB7FC012081211163
:1014300019C0DA01048110E0228133814085518591
:1014400086E691E09A838983FB01C280D380E480A1
:10145000F580CB82DC82ED82FE82BD01CE01019659
:101460000E94C20926960FB6F894DEBF0FBECDBF0C
:10147000DF91CF911F910F91FF90EF90DF90CF9070
:101480000895EF92FF920F931F93CF93DF938C01F8
:10149000E0909604F12CE7012897FC0196818CE6F8
:1014A000890F8330D8F0983C09F471C0933809F063
:1014B000F6C088E0E9E6F4E0A3E3B5E001900D9220
:1014C0008A95E1F781E794E090933E0580933D058E
:1014D000D0933C05C0933B0582E052C0943909F09B
:1014E00056C08781873020F010923A0580E048C0CE
:1014F00040913705509138052481358142175307B3
:1015000049F44091330550913405208131814217CF
:101510005307A9F1F8E18F9FC001112440913105D3
:101520005091320527E235E0241B350B2817390787
:101530005CF480918C04816080938C048091910490
:10154000909192040E94AA0588E0E9E6F4E0A3E302
:10155000B5E001900D928A95E1F7AE0161E774E084
:1015600080913D0590913E050E944B30D0933C0503
:10157000C0933B0580913A05815080933A0581E004
:10158000DF91CF911F910F91FF90EF9008958BE61F
:10159000890F823018F0983C09F081C020913B05FA
:1015A00030913C05AE01420F531F4139510508F0FF
:1015B0009BCF80913A05882309F498CF963921F082
:1015C000F8019781891392CF4091370550913805E2
:1015D000F801848195814817590709F087CF8091D8
:1015E0003D0590913E05AE0161E774E0820F931FC7
:1015F0000E944B3080913B0590913C05C80FD91F4C
:10160000D0933C05C0933B05F8018681863909F0EB
:10161000B1CF10923A05878180933905833809F458
:101620005BCFA0913105B091320587E295E08A1B2E
:101630009B0B8C179D0738F18AE0E3E3F5E00190FE
:101640000D928A95E1F78091310590913205609174
:101650003D0570913E0540913B0550913C050A9631
:101660000E944B3020913B0530913C05265F3F4F57
:101670008091310590913205820F931F909332052E
:10168000809331057CCF80919104909192040E94C7
:10169000AA0580918C04816080938C0427CFA0914F
:1016A0003105B0913205CD01875994408C0F9D1FB3
:1016B0008B39910508F01ACF88E0E9E6F4E0019053
:1016C0000D928A95E1F7E0913105F0913205D187CD
:1016D000C0878091310590913205AE0161E774E0D9
:1016E0000A960E944B30F2E0EF0EF11C809131051A
:1016F00090913205E80EF91EF0923205E092310524
:101700003ECF3F924F925F926F927F928F929F92C5
:10171000AF92BF92CF92DF92EF92FF920F931F93FF
:10172000CF93DF9380918C0481FD15C0209131050A
:101730003091320580FD06C0A90147595440493710
:1017400051054CF000E02759344011F008F0C5C0B5
:101750008E7F80938C040E9418024B015C0100E094
:1017600044244394512CFBE7EF2EF5E2FF2EA4E234
:10177000CA2EA9E0DA2EC0919104D09192048881FA
:1017800099818F3F910509F4A8C08A819B818F3F81
:10179000910509F4A2C067E1CE010E94660580FDB3
:1017A0009CC06FEFCE010E940D050E9418026819BF
:1017B00079098A099B09683E73408105910508F003
:1017C0008CC0C0919104D0919204CE010E94B203CA
:1017D00080E60E94B5038FEF0E94B503182FCE015B
:1017E0000E94AF03113298F062EECE010E940D0507
:1017F00062E070E080E090E00E94E50110929604C3
:101800006AE070E080E090E00E94E501B4CF1093C0
:1018100096041830A8F3C0919104D09192043F80AF
:10182000311608F4132D8885311A8111312CCE011F
:101830000E94B20381E60E94B50379E6672E74E048
:10184000772E115038F08FEF0E94B503F30181938A
:101850003F01F7CF3A94FFEF3F1621F08FEF0E9440
:10186000B503F8CFCE010E94AF0340E767E0CE0199
:101870000E94230580916B0490916C04EC012097E9
:1018800009F4B0C02C2F2770263008F074CF63E025
:10189000D695C7956A95E1F7F2CF033C81F400979E
:1018A00071F090936A048093690410926C04109212
:1018B0006B0460E090E080E00E941B0D5CCF8091A3
:1018C0008B048823E9F007FF1DC08CE6800F83306E
:1018D000C8F0083CB9F00338A9F0802FDF91CF9110
:1018E0001F910F91FF90EF90DF90CF90BF90AF903E
:1018F0009F908F907F906F905F904F903F90089552
:10190000013C19F389E694E00E94410A823009F013
:1019100032CF03E8E2CF8034910509F061C0023C88
:10192000D9F480918C0483FD26CF243249E034071A
:1019300009F421CF8091690490916A0490936C041A
:1019400080936B0430936A04209369046091D105FD
:1019500070E090E080E067C089E694E00E94410A70
:10196000182F809162048823B9F18091940490919A
:1019700095049C0153E0369527955A95E1F7232B62
:1019800019F0F7013197F1F783709927FC0128E5E9
:1019900032E0E29FC001E39F900DF29F900D112471
:1019A0000E94690180919304882369F08150990B0A
:1019B0009C01220F331F820F931FE20102C0CC0F44
:1019C000DD1F8A95E2F764E0CE0123E0880F991FBE
:1019D0002A95E1F70E941B0D123009F0CCCE99CF69
:1019E00061E06ACF00916F042091940430919504D6
:1019F0008217930709F08FCF023809F4BCCE003864
:101A000009F04BCF8432994009F459CFD0926C043D
:101A1000C0926B0462E084E299E00E941B0D6AE0D0
:101A200070E080E090E00E94E50162E080916B044C
:101A300090916C0441CFCF92DF92EF92FF920F937F
:101A40001F93CF93DF9300D000D0CDB7DEB79C01BA
:101A50002115310509F45AC0422F4770463008F06D
:101A600053C043E0369527954A95E1F7F1CF8111B0
:101A70008AC010E08FC0112319F0133009F089C01B
:101A80000F3708F086C080918C0482FF1AC0409105
:101A900063045091640460916504709166048091C0
:101AA0009104909192040E94CD0680918C048B7FCA
:101AB00080938C0460E080919104909192040E9444
:101AC0007C0580919104909192040E94DF050E9410
:101AD00018026B017C010E94810B813C09F459C002
:101AE0000E941802AB01BC014C195D096E097F0907
:101AF0008091670490916804B0E0A0E08417950796
:101B0000A607B70740F7B5CF10E04EC0162F7C01EF
:101B100000916F0401541C821B829A8389836B831A
:101B2000CE0101960E9430014C816B8189819A819E
:101B30000E943907113009F09ACF882309F499CF10
:101B400089819A81E816F906F1F40F37E0F481EC07
:101B500080936F048091690490916A0490936C045F
:101B600080936B049A8389831B831C82CE01019628
:101B70000E94300188E0809396044C816B818981BA
:101B80009A810E94390789819A81E816F90609F03D
:101B900072CF11E080918C0482FD06C08091910487
:101BA000909192040E94DF05812F0F900F900F906B
:101BB0000F90DF91CF911F910F91FF90EF90DF90E9
:101BC000CF900895EF920F93CF93DF93CDB7DEB709
:101BD000EC970FB6F894DEBF0FBECDBF4CAF41E01F
:101BE000498355E45A83E4EFF5E0FC83EB83ED820F
:101BF0003F832E83F90101900020E9F73197E21B22
:101C0000F30BE8871A8619869E01245C3F4F3F87B5
:101C10002E874D8726E02C871AAE0BAF9E01265CDF
:101C20003F4F3B8B2A8B22E0298B3CE0388B2B8764
:101C300026E631E03DAB2CABFC0182819381A4818F
:101C4000B5818EAB9FABA8AFB9AFAB01BE016C5CE9
:101C50007F4FCE0101960E941508EC960FB6F894BE
:101C6000DEBF0FBECDBFDF91CF910F91EF900895F2
:101C7000FB0101900020E9F73197AF01461B570B9C
:101C8000DC01ED91FC910280F381E02D09948F92AB
:101C90009F92AF92BF92EF92FF920F931F93CF93B9
:101CA000DF93CDB7DEB7A1970FB6F894DEBF0FBEB6
:101CB000CDBF7C01FA01CB0119A2223008F42AE041
:101CC0008E010F5D1F4F822E912CB12CA12CBF01D4
:101CD000A50194010E943E2FF901CA016A300CF55A
:101CE000605DD8016E938D01232B242B252B79F772
:101CF00090E080E0109721F0BD01C7010E94380EEE
:101D0000A1960FB6F894DEBF0FBECDBFDF91CF9185
:101D10001F910F91FF90EF90BF90AF909F908F9089
:101D20000895695CDECF8F929F92AF92BF92CF925F
:101D3000DF92EF92FF920F931F93CF93DF937C017B
:101D4000EB016C0182E0C80ED11C4701E5E08E0E6C
:101D5000911C10E000E0F60141916F0150E070E04D
:101D600060E02AE0CE010E94470E5C01E881F98123
:101D70000190F081E02D6EE2CE0109958A0D9B1D48
:101D8000080F191FC814D90431F7F701458150E035
:101D900070E060E02AE0CE010E94470E800F911FA4
:101DA000DF91CF911F910F91FF90EF90DF90CF9037
:101DB000BF90AF909F908F900895CF92DF92EF9257
:101DC000FF92CF93DF936C01990FEE08FF08F7FEA7
:101DD00023C06DE28EE193E00E94C502EC0144272E
:101DE0005527BA014C195D096E097F092AE08EE179
:101DF00093E00E94470EC80FD91F68E671E08EE19C
:101E000093E00E94380E8C0F9D1FDF91CF91FF90C1
:101E1000EF90DF90CF9008952AE0B701A6018EE100
:101E200093E00E94470EEC01E8CFCF93DF93BC0113
:101E30008EE193E00E94380EEC0168E671E08EE1DD
:101E400093E00E94380E8C0F9D1FDF91CF91089573
:101E50002F923F924F925F926F927F928F929F92BA
:101E6000AF92BF92CF92DF92EF92FF920F931F93A8
:101E7000CF93DF937C016B016BE671E08EE193E021
:101E80000E94380EC7010E94DD0E0E9418024B010D
:101E90005C010091000110910101C801019690932D
:101EA000010180930001C5E0D0E08BE1482E83E082
:101EB000582E90E1392E66246394712C0E941802EA
:101EC00020918D0430918E0440918F0450919004A4
:101ED000621B730B840B950B6931710581059105AC
:101EE00020F40E94810B87FFE9CFC2010197F1F72F
:101EF00030929604809194049091950490936A0492
:101F00008093690470926C0460926B0410936E0469
:101F100000936D0410926F04809271049092720489
:101F2000A0927304B0927404F0927604E092750467
:101F3000D0927804C092770460E081E090E00E9443
:101F40001B0D282E811110C00E94180260938D0471
:101F500070938E0480938F0490939004219709F0DE
:101F6000ADCF89E891E002C080E891E00E94150FB2
:101F7000822DDF91CF911F910F91FF90EF90DF9015
:101F8000CF90BF90AF909F908F907F906F905F9019
:101F90004F903F902F9008954F925F926F927F9253
:101FA0008F929F92AF92BF92CF92DF92EF92FF9269
:101FB0000F931F93CF93DF9300D000D000D0CDB705
:101FC000DEB76C015B013A0126E6422E21E0522E7B
:101FD0005A824982FB0182819381A481B5818B83DE
:101FE0009C83AD83BE83BE016F5F7F4FC6010E949D
:101FF000080AF6018181813079F58481828093809D
:10200000E080F12C2091F9053091FA05F901019059
:102010000020E9F78F0101501109021B130BF60193
:10202000408551855A824982F501A280B380C480DF
:10203000D580AB82BC82CD82DE821F928F9388E2F4
:10204000A82EB12C95E4C92ED12CB301CE01019656
:102050000E9472090F900F9026960FB6F894DEBF7B
:102060000FBECDBFDF91CF911F910F91FF90EF90E9
:10207000DF90CF90BF90AF909F908F907F906F90A8
:102080005F904F900895CF93DF93EC01A881B981C1
:10209000EB01E881F9811097F1F03097B1F4EC0190
:1020A0008C819D81892BC9F08C9190E00BC0DB0164
:1020B00014968D919C91892B81F0808190E091956F
:1020C00081959109DF91CF910895BF01CD01DF91F5
:1020D000CF910C946D30309751F790E080E0F2CFC3
:1020E000CF92DF92EF92FF920F931F93CF93DF93E4
:1020F0006C018FE2E82E84E0F82EC1EFD3E0F70107
:10210000019111917F010115110579F02E813F8117
:10211000F601848195812817390739F4B601CE017B
:1021200002960E944310892B39F02696F4E0CD32B6
:10213000DF0729F710E000E0C801DF91CF911F9180
:102140000F91FF90EF90DF90CF9008950F931F9322
:10215000CF93DF938C01EB01FC018081918100978B
:10216000E1F06881798161157105A9F0428153819F
:102170002C813D814217530770F00E9476308C818C
:102180009D81F801958384831D821C82DF91CF910C
:102190001F910F9108950E94312988819981F8013A
:1021A000918380838A819B81938382838C819D81AB
:1021B00095838483198218821B821A82E5CFCF937C
:1021C000DF93EC0188819981009711F00E943129F9
:1021D000198218821D821C821B821A82DF91CF9184
:1021E0000895FC0180819181009711F00C943129B0
:1021F00008950F931F93CF93DF93EC01888199810A
:10220000009759F02A813B812617370730F081E08B
:10221000DF91CF911F910F9108958B016F5F7F4FD9
:102220000E948E2F009759F0998388831B830A831D
:102230002C813D81232B59F7FC011082E8CF80E0EF
:10224000E7CFEF92FF920F931F93CF93DF93611528
:10225000710541F480E0DF91CF911F910F91FF90C4
:10226000EF90089541155105B1F07B01EC010C810F
:102270001D81040F151FB8010E94F910882351F326
:10228000288139818C819D81B701820F931F0E9423
:1022900076301D830C8381E0DECFFB0101900020AE
:1022A000E9F73197AF01461B570B0C942111EF92C0
:1022B000FF920F931F93CF93DF93EC017B018A0171
:1022C000BA010E94F91081110BC0CE010E94DF10EB
:1022D000CE01DF91CF911F910F91FF90EF90089564
:1022E0001D830C83B701888199810E947630F0CFDD
:1022F000FB0101900020E9F73197AF01461B570B16
:102300000C945711EF92FF920F931F93CF93DF938B
:10231000CDB7DEB7A1970FB6F894DEBF0FBECDBF25
:102320007C01CB01BA01F701118210821382128263
:10233000158214828E010F5F1F4F22E044E00E943D
:102340007728009789F0BC01C7010E947811A196F7
:102350000FB6F894DEBF0FBECDBFDF91CF911F91B6
:102360000F91FF90EF900895C7010E94DF10EFCF0B
:10237000CF93DF93EC01FB018617970749F060814B
:1023800071816115710541F0448155810E94571199
:10239000CE01DF91CF9108950E94DF10F9CF6F92A7
:1023A0007F928F929F92AF92BF92CF92DF92EF92E5
:1023B000FF920F931F93CF93DF9300D000D000D0F4
:1023C000CDB7DEB76C011A8219821C821B821E8275
:1023D0001D82CE0101960E94B8118D809E802FE251
:1023E000622E24E0722E31EFE32E33E0F32E530100
:1023F00010E000E0F501819191915F01892B79F165
:10240000F701868197818815990549F5BE016F5FAF
:102410007F4FC70102960E944310892B01F5000FE0
:10242000111FF801E35DFB4FD382C282CE010196FA
:102430000E94F11026960FB6F894DEBF0FBECDBFF6
:10244000DF91CF911F910F91FF90EF90DF90CF9090
:10245000BF90AF909F908F907F906F9008950F5F87
:102460001F4FF6E0EF0EF11C0A30110519F630E0AF
:1024700020E0F301819191913F01892BA9F4F901A9
:10248000EE0FFF1FE35DFB4FD382C28246E0429F07
:10249000C001439F900D1124BE016F5F7F4F8D508F
:1024A0009C4F0E94B811C2CF2F5F3F4F2A30310599
:1024B00001F7BCCFFC0111821082138212821582B7
:1024C0001482FB0101900020E9F73197AF01461B10
:1024D000570B0C9457112F923F924F925F926F922D
:1024E0007F928F929F92AF92BF92CF92DF92EF92A4
:1024F000FF920F931F93CF93DF9300D000D000D0B3
:10250000CDB7DEB76C015B012A016DB67EB696E6EB
:10251000292E91E0392E3A822982FB018281938112
:10252000A481B5818B839C83AD83BE83BE016F5F25
:102530007F4FC6010E94080AF6018181813009F0AF
:1025400055C082E991E00E94150F70E060E082E0E2
:1025500090E00E94280FF601848182809380E080C1
:10256000F12C03E011E0F80101900020E9F78F0160
:1025700004501140F601408551853A822982F501C7
:10258000A280B380C480D580AB82BC82CD82DE8243
:102590001F928F93B12CA12C85E4C82ED12C23E05F
:1025A00031E0B201CE0101960E9472090F900F90A6
:1025B0000FB6F8947EBE0FBE6DBE26960FB6F89489
:1025C000DEBF0FBECDBFDF91CF911F910F91FF9066
:1025D000EF90DF90CF90BF90AF909F908F907F90C3
:1025E0006F905F904F903F902F900895833001F748
:1025F0004780512CC20101962DB73EB7281B390BDD
:102600000FB6F8943EBF0FBE2DBF0DB71EB70F5FBC
:102610001F4F65817681A201C8010E944B30F801ED
:10262000E40DF51D1082B801CE0101960E945A12E8
:10263000C8010E94BA298C016FE971E08EE193E034
:102640000E94380EC8010E94DD0EB80183E090E0C0
:102650000E94280FCE0101960E94F1100FB6F89447
:102660007EBE0FBE6DBEA4CFEF920F931F93CF938C
:10267000DF93CDB7DEB72E970FB6F894DEBF0FBE4F
:10268000CDBF6AE671E0CE0101960E945A12109108
:1026900002018091F805823309F04DC060EB71E0D2
:1026A000CE0101960E9478111F83188641E050E008
:1026B000BE01695F7F4FCE0101960E94211167EC38
:1026C00071E0CE0101960E944D11E090F605009157
:1026D000F80510E029813A814091F7056091F205F3
:1026E0007091F30586E691E098878F838091EE05DF
:1026F0009091EF05A091F005B091F10589879A8737
:10270000AB87BC87CE0107960E94E20D8091F7054A
:102710008F5F8093F705CE0101960E94F1102E96EF
:102720000FB6F894DEBF0FBECDBFDF91CF911F91E2
:102730000F91EF90089518861F821A8619861C86BD
:102740001B861D871E86BE01635F7F4FCE010796E5
:102750000E947811BE01695F7F4FCE0101960E94F1
:10276000A610CE0107960E94F110AFCF2F923F9294
:102770004F925F926F927F928F929F92AF92BF9291
:10278000CF92DF92EF92FF920F931F93CF93DF933D
:10279000CDB7DEB72E970FB6F894DEBF0FBECDBF14
:1027A0006C012B013A016AE671E0CE0107960E94A6
:1027B0005A1286E691E09A838983F201828193819D
:1027C000A481B5818B839C83AD83BE83A301BE01AD
:1027D0006F5F7F4FC6010E94080AF6018181813038
:1027E00009F0E3C08BEC91E00E94150F70E060E00F
:1027F00081E090E00E94280FF601B60160567F4FFD
:10280000A12C30E020E090E080E0E617F707E9F047
:102810004385463051F4A585B6854C91483589F0FD
:10282000413089F482E090E00EC0413161F4A58529
:10283000B6854C91423339F422E3A22E21E030E0F8
:1028400002C081E090E03496E0CF009709F081C0AB
:1028500010910201232B09F064C01A8219821C8294
:102860001B821E821D821D871E86BE01635F7F4FF5
:10287000CE0101960E947811BE016F5F7F4FCE019D
:1028800007960E94A610CE0101960E94F110F60153
:10289000848182809380E080F12C2F813885F9013A
:1028A00001900020E9F731978F01021B130BF6010D
:1028B0004085518566E671E07A836983F201228062
:1028C0003380448055802B823C824D825E821F92F1
:1028D0008F93B12C85E4C82ED12CB301CE01019683
:1028E0000E9472090F900F90CE0107960E94F1107E
:1028F0002E960FB6F894DEBF0FBECDBFDF91CF91FD
:102900001F910F91FF90EF90DF90CF90BF90AF900D
:102910009F908F907F906F905F904F903F902F90FF
:10292000089560EB71E0CE0107960E94781119833B
:102930001A8241E050E0BE016F5F7F4FCE010796E3
:102940000E94211167EC71E0CE0107960E944D11A3
:102950009ECF019769F58DED91E00E94150FF20170
:1029600082819381A481B5818093EE059093EF05D8
:10297000A093F005B093F1057092F3056092F20513
:1029800082E08093F705A092F805F601448150E0BB
:102990006281738184EF95E00E944B30F60184815F
:1029A0008093F6050E9434139FCF833009F09CCFAB
:1029B00085EE91E00E94150F8FEF8093F70594CF7D
:1029C000AF92BF92CF92DF92EF92FF920F931F933D
:1029D000CF93DF9300D000D0CDB7DEB78C016B0171
:1029E0007A0180911B038333E9F45B016801C40E13
:1029F000D51EC016D106A9F10E9456038FE00E9491
:102A0000B503812F0E94B503802F0E94B5030F5F8D
:102A10001F4F80E00E94B503F50181935F010E9482
:102A20004C03E7CF843369F50E94560319830A8368
:102A30008F2D8F778B83EC8264E070E0CE0101965E
:102A40000E943203A70170E060E0C6010E94663078
:102A5000E114F10421F0B701C6010E9432030E9483
:102A60004C03C7010F900F900F900F90DF91CF9103
:102A70001F910F91FF90EF90DF90CF90BF90AF909C
:102A800008950E9456030F3F110509F030F4198292
:102A90000A831B8263E070E0D1CF17FD0BC019825F
:102AA0000A8333E0169507953A95E1F7007E0860B2
:102AB0000B83F0CFC80126E0969587952A95E1F71C
:102AC000807E19830A830115104C18F480618B8372
:102AD000E1CF8861FCCFCF93DF931F92CDB7DEB7F4
:102AE00020911C0330E0322F2227260F371F90E061
:102AF000982F882741E050E0BE016F5F7F4F820F23
:102B0000931F0E94E01489810F90DF91CF91089567
:102B1000CF93C82F462F61E070E00E94F00461E07F
:102B200070E08C2F0E946B158111F9CFCF91089521
:102B3000CF93C82F80E591E00E942D0160E170E005
:102B40008C2FCF910C948815CF93DF93EC01888D57
:102B5000843020F40E94981584E0888FDF91CF9113
:102B60000895CF93FC01C08D80E591E00E942D0176
:102B700060E270E08C2F0E94881562E070E08C2F7C
:102B80000E946B1584FD16C062E070E08C2F0E94DD
:102B90006B1583FF0AC048E162E070E08C2F0E9451
:102BA000F00480E090E0CF91089580E591E00E94EC
:102BB0002D01E3CF40E162E070E08C2F0E94F00431
:102BC00081E0F0CFCF93DF931F92CDB7DEB741E026
:102BD00050E0BE016F5F7F4F90E080E00E94E01404
:102BE00089810F90DF91CF910895CF93DF93C4E156
:102BF000D0E00E94E215882361F061E070E080E09F
:102C000090E00E94E5012197A1F780E0DF91CF914C
:102C1000089581E0FBCFCF92DF92EF92FF921F9356
:102C2000CF93DF93CDB7DEB7C454D1090FB6F89474
:102C3000DEBF0FBECDBFFC0142815381648175812F
:102C400023964CAF5DAF6EAF7FAF239781E02396A5
:102C50008FAF23972396CCACDDACEEACFFAC2397C3
:102C6000CBAADCAAEDAAFEAA4DA75EA76FA778ABF8
:102C700088ABCDA4DEA4EFA4F8A8CFA2D8A6E9A67D
:102C8000FAA68EABCBA8DCA8EDA8FEA8C9A2DAA252
:102C9000EBA2FCA226E631E03C8B2B8B9FEF9D8BB9
:102CA0009E8B9F8B188E3E872D878AA7CFA0D8A496
:102CB000E9A4FAA4CF86D88AE98AFA8A8CA389A1E2
:102CC0009AA1ABA1BCA189879A87AB87BC873A83BD
:102CD00029834B835C836D837E8380911D038111E7
:102CE0007AC060E372E080E090E00E94E5010E941B
:102CF0007806E6EAF1E0E491F0E0EE0FFF1FE85716
:102D0000FE4F8591949190931A0380931903EAEBF7
:102D1000F1E0E491E09318038AE00E940E010E9422
:102D20004C0380E591E00E942D0184E380931B0316
:102D300080E80E946C040E94F515882309F481C084
:102D400088E00E946C040E94E215883009F079C086
:102D500080E10E946C040E94E215803109F071C08C
:102D600080E00E946C040E94E215182F811169C056
:102D700041E050E0BE016D5B7F4F8FE190E00E942B
:102D8000E01424968FAD2497833009F05AC080E474
:102D900080931C0342E06EE170E0812F0E94F004FA
:102DA00042E06FE170E0812F0E94F0041F5F143059
:102DB00089F740E06EE170E0812F0E94F00440E06E
:102DC0006FE170E0812F0E94F0041F5F183089F7D7
:102DD00081E080931D0380E591E00E942D0146E093
:102DE00050E060E271E089E090E00E94BC0344E0C2
:102DF00050E0BE016D5F7F4F8FE090E00E94BC030A
:102E000044E050E0BE01615F7F4F81E090E00E94AE
:102E1000BC0344E050E0BE016B5E7F4F85E090E074
:102E20000E94BC0381E08C8789859A85AB85BC852F
:102E30008093DB039093DC03A093DD03B093DE0368
:102E40006FC087E380931B0380E80E946C040E949C
:102E5000F515882339F188E00E946C040E94E21580
:102E6000883001F580E10E946C040E94E215182F61
:102E70008031C1F480E00E946C040E94E21581114F
:102E800011C041E050E0BE016D5B7F4F89E390E0EF
:102E90000E94E01424968FAD2497843019F4109387
:102EA0001C0396CF83E380931B0380E80E946C048D
:102EB0000E94F515882391F180E10E946C040E9424
:102EC000E215803159F582E10E946C040E94E215FE
:102ED000823121F580E00E946C040E94E21581118C
:102EE0001DC084E080931C0315E525961FAF259730
:102EF00041E050E0BE016C5B7F4F8BE190E00E94AF
:102F0000BC0324961FAF249741E050E0BE016D5BE7
:102F10007F4F8AE190E00E94BC035ACF10921B03BE
:102F2000CC5BDF4F0FB6F894DEBF0FBECDBFDF9195
:102F3000CF911F91FF90EF90DF90CF9008951F9356
:102F4000CF93DF931F92CDB7DEB7FC01108D143005
:102F500020F5818D928D892B01F180E591E00E9411
:102F60002D01812F0E94610327E0129FF00111249F
:102F7000E450FD4F22813381377041E050E0BE01C3
:102F80006F5F7F4F820F931F0E94E014898190E052
:102F90000F90DF91CF911F9108958FEF9FEFF8CFA2
:102FA000DA01E0911C03F0E0FE2FEE27E60FF71F99
:102FB00090E0982F8827A901BD018E0F9F1F0C94C8
:102FC000E0148F929F92AF92BF92CF92DF92EF92D6
:102FD000FF921F93CF93DF93CDB7DEB72C970FB639
:102FE000F894DEBF0FBECDBF20911B0314E0222357
:102FF00039F16B017C0180E591E00E942D015E01B9
:1030000027E0A20EB11C450110E063E070E0812FC3
:103010000E946B15F40181934F01882349F11F5FD2
:10302000143099F710E0F50181915F018D31D9F0ED
:103030008831C9F08A518230B0F01F5F143099F79F
:10304000812F2C960FB6F894DEBF0FBECDBFDF9157
:10305000CF911F91FF90EF90DF90CF90BF90AF90F6
:103060009F908F90089560E170E0812F0E948815F5
:10307000A12EB12C83EE93E00197F1F742E870E0C6
:1030800060E0812F0E94F0044FEF62E070E0812F3A
:103090000E94F004B601C114D10491F4809107019B
:1030A0009091080101968115F0EC9F0708F464C027
:1030B00090930801809307016091070170910801C6
:1030C000812F0E94900486E0EFE0F1E0DE0111968E
:1030D00001900D928A95E1F7F70183818F778C83B8
:1030E00084818D8385818E83A7014E5F5F4F24E0AD
:1030F00030E06CE070E0812F0E947F04DB86CC869C
:1031000022E030E0AE01455F5F4F60E170E0812F6B
:103110000E947F0426E030E0AE014F5F5F4F66E023
:1031200070E0812F0E947F0461E070E0812F0E9497
:10313000881527E02A9DC0012B9D900D11249C012C
:1031400024503D4F7901F9011182108222E030E0D4
:10315000AE01455F5F4F68E270E0812F0E94D0179B
:103160008B859C85982789279827F70193838283ED
:1031700016821582148264CF80E090EC99CFCF92B2
:10318000DF92EF92FF920F931F93CF93DF9300D0C4
:1031900000D000D0CDB7DEB78C016B017A01FC0105
:1031A000808D843010F40E94981586E691E09A8311
:1031B0008983F60182819381A481B5818B839C836D
:1031C000AD83BE83B701CE0101960E94E117F801DD
:1031D000808F8430A0F4F586E486128E118E81E013
:1031E00026960FB6F894DEBF0FBECDBFDF91CF910C
:1031F0001F910F91FF90EF90DF90CF90089580E0A6
:10320000EFCFFF920F931F93CF93DF9300D0CDB7F3
:10321000DEB7F82E22E030E0AE014F5F5F4F66E28E
:1032200070E00E94D01709811A811027012710270A
:1032300022E030E0AE014F5F5F4F66E270E08F2D1D
:103240000E94D01789819A81982789279827081783
:10325000190749F4C8010F900F90DF91CF911F918A
:103260000F91FF9008958C01E3CF4F925F927F9270
:103270008F929F92AF92BF92CF92DF92EF92FF9286
:103280000F931F93CF93DF9300D0CDB7DEB7782E87
:103290006B014A01A82EB12C27E0829FC0011124A6
:1032A000FC01E450FD4F7F010081118180E591E038
:1032B0000E942D010815190554F4872D0E9401194B
:1032C000F70126818C01021B11091183008301156E
:1032D000110529F563E070E0872D0E946B1584319C
:1032E00059F0882349F001E010E08C3111F410E02E
:1032F00000E0119501951109C8010F900F90DF9121
:10330000CF911F910F91FF90EF90DF90CF90BF90E2
:10331000AF909F908F907F905F904F900895801610
:1033200091060CF4840187E08A9DF0018B9DF00DDD
:103330001124E450FD4FE280F380C114D10451F117
:103340002701F7E05F22872D0E946103840D951D00
:1033500020911B03273309F453C09801240D351D18
:103360002130384008F44CC020E038E0490184188E
:103370009508A401B6010E94E0142601480C591CCE
:103380006801C818D908872D0E946103A601B201FF
:103390000E94E014E00EF11E87E08A9DF0018B9DF3
:1033A000F00D1124E450FD4FF382E282208131813F
:1033B000201B310B318320838681800F912F911D3B
:1033C0008A3F910510F4232BF1F487E08A9DF001E8
:1033D0008B9DF00D1124E450FD4F1682F982EA8294
:1033E00022E030E0AE014F5F5F4F68E270E0872D72
:1033F0000E947F0460E470E0872D0E9488157CCFD6
:10340000A801B601C5CF868377CFCF93DF93FC01A8
:10341000218D328D2115310529F48FEF9FEFDF913A
:10342000CF910895EC01808D4217530708F0A90150
:103430000E9435191816190684F7298D3A8D281B14
:10344000390B3A8F298FEBCF0F931F93CF93DF93D5
:103450001F92CDB7DEB7FC01218D328D232B41F4B5
:103460008FEF9FEF0F90DF91CF911F910F910895F4
:103470008C0141E050E0BE016F5F7F4FFC01808D09
:103480000E943519181619065CF7F801818D928D86
:103490000197928F818F898190E0E4CFDF92EF9244
:1034A000FF920F931F93CF93DF93CDB7DEB728978B
:1034B0000FB6F894DEBF0FBECDBF8C01D801599670
:1034C0004D915C915A974115510551F0ED91FC9148
:1034D000048CF58DE02D70E060E0C8010995EECF19
:1034E000F801D08CF7E0DF9EC00111249C0124502C
:1034F0003D4F7901D9018D919C91892B59F148E07B
:1035000050E0BE016F5F7F4FF801808D0E9435193A
:103510001816190694F5D801509684E0FE013196EC
:1035200001900D928A95E1F78D8190E0982F882780
:103530002E81820F911DF801958B848B8F81282F0E
:1035400030E0322F22278885820F932F911D928F92
:10355000818F13C080E591E00E942D018D2D0E9486
:103560000119D70116962C911697821B91098D93FC
:103570009C93892B21F690E080E028960FB6F89472
:10358000DEBF0FBECDBFDF91CF911F910F91FF9096
:10359000EF90DF9008953F924F925F926F927F92EB
:1035A0008F929F92AF92BF92CF92DF92EF92FF9253
:1035B0000F931F93CF93DF9300D0CDB7DEB75C019D
:1035C0004B01342E452EFC0166887788508C80E5AF
:1035D00091E00E942D0122E030E0AE014F5F5F4F8D
:1035E00060E270E0852D0E94D017C980DA80DC246B
:1035F000CD24DC2422E030E0AE014F5F5F4F60E27B
:1036000070E0852D0E94D01789819A81982789279B
:103610009827C816D90609F079C0E52CF12C67E087
:10362000569EF0011124E450FD4FD582C482032D33
:10363000142DC016D10608F4860122E030E0AE0158
:103640004F5F5F4F64E270E0852D0E94D017898143
:103650009A81982789279827680E791E93013770D9
:1036600040911B03433309F053C088E0E80EF11C7E
:10367000FE2CEE24FF0CFF0CFF0CC9018E0D9F1DCC
:10368000473309F449C0A901400F511F4130584048
:1036900008F442C060E078E06B01C21AD30AA601C8
:1036A000B4010E94BC03A8014C195D09B4016C0D62
:1036B0007D1DC7010E94BC03600E711E79826A8263
:1036C00022E030E0AE014F5F5F4F64E270E0852D95
:1036D0000E947F04F50186899789800F911F978B3F
:1036E000868BC8010F900F90DF91CF911F910F91A2
:1036F000FF90EF90DF90CF90BF90AF909F908F9012
:103700007F906F905F904F903F9008956C0172CFC3
:10371000E0E1EE0EF11CACCFA801B401CBCF8F924B
:103720009F92AF92BF92CF92DF92EF92FF921F9340
:10373000CF93DF9300D000D000D0CDB7DEB76C01BF
:103740005B01FC01808D843010F40E9498158091FB
:103750001B03811115C094E0F601908F26960FB6D9
:10376000F894DEBF0FBECDBFDF91CF911F91FF90C8
:10377000EF90DF90CF90BF90AF909F908F90089583
:1037800080E591E00E942D019E012F5F3F4F79015E
:10379000490110E063E070E0812F0E946B15F40195
:1037A00081934F01882309F11F5F143099F710E0CE
:1037B000F70181917F018D3199F0883189F08A512B
:1037C000823070F01F5F143099F7F601108F80E09F
:1037D000143021F2B586A486128E118E81E0BECF00
:1037E00060E170E0812F0E948815E12EF12C83EEBC
:1037F00093E00197F1F742E070E060E0812F0E94D2
:10380000F0044FEF62E070E0812F0E94F004B501F8
:10381000A114B10489F480910701909108010196E7
:103820008115F0EC9F0798F19093080180930701B0
:103830006091070170910801812F0E94900461E05E
:1038400070E0812F0E94881527E02E9DC0012F9DDA
:10385000900D11249C0124503D4F7901F9011182F2
:10386000108222E030E0AE014B5F5F4F68E270E013
:10387000812F0E94D0178D819E81982789279827B4
:10388000F701938382831682158214829ECF80E093
:1038900090ECCACF6F927F928F929F92AF92BF921D
:1038A000CF92DF92EF92FF920F931F93CF93DF930C
:1038B000CDB7DEB7EC970FB6F894DEBF0FBECDBF25
:1038C0004C018B013A0186E691E09A8389831C863C
:1038D0001B8648EE53E060E070E04D875E876F879F
:1038E000788B2CE331E03A872987988F8F8B198E5C
:1038F0001A8E1B8E1C8E24E029A399AB88AB1AAAC2
:103900001BAA1CAA1DAA8091DB039091DC03A09145
:10391000DD03B091DE038EA39FA3A8A7B9A78B8375
:103920009C83AD83BE8318861F82F80120E090E05F
:1039300080E06AE03191332309F47AC040ED430F0F
:103940004A3008F064C0689FA001699F500D11249F
:10395000CA01C097830F911D37FD9A958F3F91053E
:1039600049F340F34B815C816D817E818091E70357
:103970009091E803A091E903B091EA034817590731
:103980006A077B0709F428C20E9418026F70772724
:103990007C5FCE0109960E948F1B813009F01FC207
:1039A00086E691E09DA38CA38B819C81AD81BE8135
:1039B0008EA39FA3A8A7B9A745E350E0BE016C5D05
:1039C0007F4FCE0109960E94A504892B09F04EC0B5
:1039D00010E000E0CE0109960E94A4150130110507
:1039E00059F1C801EC960FB6F894DEBF0FBECDBFFB
:1039F000DF91CF911F910F91FF90EF90DF90CF90CB
:103A0000BF90AF909F908F907F906F9008953E32BF
:103A100009F0A8CF233009F4A5CFA2E3B0E0AC0FA2
:103A2000BD1FA20FB11D8C932F5F90E080E082CF6D
:103A3000233009F097CF8DABD401ED91FC91048830
:103A4000F589E02D86E691E09DA38CA38AA99BA928
:103A5000ACA9BDA98EA39FA3A8A7B9A7A301BE0126
:103A60006C5D7F4FC40109958C01BBCF0E94180289
:103A700078876F8342E050E0BE01695F7F4FCE01DF
:103A800009960E94CB1A81E090E09DA38CA342E0AE
:103A900050E0BE016C5D7F4FCE0109960E94CB1AAB
:103AA00080E091E09DA38CA342E050E0BE016C5DFC
:103AB0007F4FCE0109960E94CB1A1DA21CA242E0A4
:103AC00050E0BE016C5D7F4FCE0109960E94CB1A7B
:103AD00042E050E0BE016C5D7F4FCE0109960E942E
:103AE000CB1A42E050E0BE016C5D7F4FCE010996DB
:103AF0000E94CB1A7801D8018C91882311F187019B
:103B0000F80181916F01882311F08E32C1F45801C0
:103B1000AE18BF081A141B0484F4AEAA41E050E0AA
:103B2000BE016A5C7F4FCE0109960E94CB1AA501A7
:103B3000B701CE0109960E94CB1A7601DCCF86012F
:103B4000DFCF1EAA41E050E0BE016A5C7F4FCE018C
:103B500009960E94CB1A00E011E01DA30CA342E0DD
:103B600050E0BE016C5D7F4FCE0109960E94CB1ADA
:103B70001DA30CA342E050E0BE016C5D7F4FCE015F
:103B800009960E94CB1ACE0109960E94B115892B85
:103B900009F41ECF83E0E82EF12CD7C04B815C8165
:103BA0006D817E81898D9A8DAB8DBC8D48175907AB
:103BB0006A077B0709F00AC18D8D9E8DC59709F0B4
:103BC00005C18AA19BA10DEF1FEF0C970CF4B4C0A7
:103BD0004CE050E0BE016C5D7F4FCE0109960E9423
:103BE000051A8EA19FA19827892798279BAF8AAF96
:103BF0004F8158852CA13DA14217530709F0E9C018
:103C000097FFE7C08F7092700BEF1FEF892B09F0C1
:103C100093C0AAA4BBA4BA24AB24BA240AEF1FEF12
:103C2000A114B10409F488C010E000E088A599A5AA
:103C30009827892798270817190708F541E050E0C9
:103C4000BE016A5C7F4FCE0109960E94051A4EA9FB
:103C5000442339F050E070E060E0CE0109960E9404
:103C6000051A8EA98111EACF44E050E070E060E0CF
:103C7000CE0109960E94051A0F5F1F4FD7CFD12C96
:103C8000C12C41E050E0BE01645C7F4FCE0109963B
:103C90000E94051A4CAD842F807C09F074C0442327
:103CA00039F050E070E060E0CE0109960E94051AFC
:103CB0008CAD8111E6CF42E050E0BE01685C7F4FE1
:103CC000CE0109960E94051A42E050E0BE016A5CEE
:103CD0007F4FCE0109960E94051A44E050E070E043
:103CE00060E0CE0109960E94051A42E050E0BE0154
:103CF000665C7F4FCE0109960E94051A88AD99AD8A
:103D00004AAD5BAD8115914009F047C00EA91FA9CE
:103D10001027012710270130110509F03EC0411579
:103D2000544009F04DC044E050E0BE016E5C7F4F4E
:103D3000CE0109960E94051AF1E0EF1AF10809F484
:103D400049CE0F3F100709F045CE0E9418025B01D3
:103D50006C01CE0109960E944E1A181619060CF431
:103D60001DCF0E9418026A197B098C099D096938C8
:103D700073418105910538F562E370E080E090E0E1
:103D80000E94E501E6CF41E050E070E060E0CE0146
:103D900009960E94051A1CAE8BCF5427452754273D
:103DA00070E060E0CE0109960E94051AEFEFCE1A8E
:103DB000DE0AAC14BD0409F064CF06EF1FEFBCCFE0
:103DC00007EF1FEFB9CF0FEF1FEFB6CF0EEF1FEFCB
:103DD000B3CF0CEF1FEFB0CF0EEF1FEF02CE10E00E
:103DE00000E0FFCDCF93DF9380910001909101011E
:103DF000019690930101809300018091310590918B
:103E00003205D0E0C0E024E087399207B9F0B0F085
:103E1000C0919F04D091A0048C1B9D0B0A97909396
:103E20003205809331054AE950E04C1B5D0BBE0121
:103E30006F557B4F87E994E00E94543081E0CD2B91
:103E400009F480E0DF91CF9108952F923F924F9235
:103E50005F926F927F928F929F92AF92BF92CF921A
:103E6000DF92EF92FF920F931F93CF93DF93CDB723
:103E7000DEB7AB970FB6F894DEBF0FBECDBF6C01B7
:103E80007B011A0186E691E09A838983FB01828196
:103E90009381A481B5818B839C83AD83BE83BE0156
:103EA0006F5F7F4FC6010E94080AF6018181813051
:103EB00009F006C16AE671E0CE0185960E945A12A9
:103EC00084EF91E00E94150FF5E0FBA710E000E001
:103ED000812C912C54010E9418022B013C0170E0AE
:103EE00060E084E090E00E94280F882341F090E099
:103EF00080E00E94F21E882311F00F5F1F4F0E9486
:103F000018026419750986099709860E971EA81E5E
:103F1000B91E8BA581508BA78111DDCFC501B401DE
:103F200025E030E040E050E00E943E2FCA01B90198
:103F30000E94CA2EAB01BC01CE014F960E94821195
:103F400065E070E0CB01801B910B0E94742F24E68A
:103F5000269FC001279F900D1124BC01990F880B4B
:103F6000990B0E94CC2EAB01BC01CE0149960E9458
:103F700082111C8A1B8A1E8A1D8A188E1F8A4AE09B
:103F8000BE016F5F7F4FC8010E94D829BE016F5FDD
:103F90007F4FCE0143960E9478111A8219821C82AB
:103FA0001B821E821D82BE016D5E7F4FCE01019677
:103FB0000E94B8114DE050E060E072E0CE01019641
:103FC0000E942111811104C0CE0101960E94DF10D0
:103FD0004D8D5E8D698D7A8DCE0101960E942111E5
:103FE000811104C0CE0101960E94DF1047E150E02C
:103FF0006EE072E0CE0101960E942111811104C091
:10400000CE0101960E94DF104BA15CA16F8D78A1BB
:10401000CE0101960E942111811104C0CE010196AA
:104020000E94DF10BE016F5F7F4FCE0185960E9418
:10403000B811CE0101960E94F110CE0143960E9464
:10404000F110CE0149960E94F110CE014F960E94C8
:10405000F110F601648182809380808190E02DA12F
:104060003EA1F90101900020E9F731978F01021B71
:10407000130BF60140855185E6E6F1E0FA83E9830A
:10408000F701C280D380E480F580CB82DC82ED82B0
:10409000FE821F926F93B12CA12C65E4C62ED12C09
:1040A0007C01B101CE0101960E94720990E080E08E
:1040B0000E943129CE0185960E94F1100F900F9039
:1040C000AB960FB6F894DEBF0FBECDBFDF91CF9198
:1040D0001F910F91FF90EF90DF90CF90BF90AF9026
:1040E0009F908F907F906F905F904F903F902F9018
:1040F00008951F920F920FB60F9211242F933F93A2
:104100008F939F93AF93BF938091F4029091F502A8
:10411000A091F602B091F7023091F30223E0230F51
:104120002D3758F50196A11DB11D2093F302809300
:10413000F4029093F502A093F602B093F7028091F7
:10414000F8029091F902A091FA02B091FB02019657
:10415000A11DB11D8093F8029093F902A093FA0279
:10416000B093FB02BF91AF919F918F913F912F919F
:104170000F900FBE0F901F90189526E8230F029600
:10418000A11DB11DD2CF1F920F920FB60F92112415
:104190002F933F934F935F936F937F938F939F934F
:1041A000AF93BF93EF93FF938EE193E00E94A3023E
:1041B000FF91EF91BF91AF919F918F917F916F91FF
:1041C0005F914F913F912F910F900FBE0F901F90D5
:1041D00018951F920F920FB60F9211242F938F9361
:1041E0009F93EF93FF93E0912E03F0912F03808133
:1041F000E0913403F091350382FD1BC090818091E2
:1042000037038F5F8F7320913803821741F0E0915D
:104210003703F0E0E25EFC4F958F80933703FF9108
:10422000EF919F918F912F910F900FBE0F901F9044
:1042300018958081F4CFCF92DF92EF92FF920F9387
:104240001F93CF93DF93109221031092200388EEE7
:10425000C82E83E0D82EE12CF12CC0922203D092FC
:104260002303E0922403F09225038AE291E09093E5
:104270001F0380931E0385EC90E090932B038093A3
:104280002A0384EC90E090932D0380932C0380EC20
:1042900090E090932F0380932E0381EC90E0909315
:1042A00031038093300382EC90E09093330380934A
:1042B000320386EC90E090933503809334031092A0
:1042C0003703109238031092390310923A03C6E66E
:1042D000D1E0D093BC03C093BB031092BD031092F6
:1042E000BE031092BF031092C003D093C203C093C9
:1042F000C1031092C3031092C4031092C50310921D
:10430000C603D093C803C093C7031092C903109289
:10431000CA031092CB031092CC03D093CE03C09368
:10432000CD031092CF031092D0031092D1031092BC
:10433000D203D093D403C093D3031092D503109229
:10434000D6031092D7031092D803D093E003C09302
:10435000DF031092E1031092E2031092E303109244
:10436000E403D093DA03C093D9031092DB031092D5
:10437000DC031092DD031092DE03D093E603C093BA
:10438000E5031092E7031092E8031092E9031092FC
:10439000EA03D093EC03C093EB031092ED03109269
:1043A000EE031092EF031092F003D0930006C09337
:1043B000FF05109201061092020610920306109259
:1043C000040666E272E089EF95E00E945A12D093EB
:1043D000ED05C093EC051092EE051092EF051092DA
:1043E000F0051092F10587E090E09093D505809359
:1043F000D40588E090E09093D7058093D60510927D
:10440000DA0580E28093DB051092DC0585E080937D
:10441000E20585E090E0A0E0B0E08093E8059093AD
:10442000E905A093EA05B093EB051092DD0584ED54
:1044300095E0909392048093910487E994E090939F
:104440003205809331058FE395E090933E0580938C
:104450003D0583E395E090938A048093890410924C
:104460008D0410928E0410928F041092900410927A
:104470008C0410928B041092620410924A041092E1
:104480004904C0924B04D0924C04E0924D04F09247
:104490004E048CE391E09093480480934704D093BA
:1044A0005604C09355041092570410925804109269
:1044B000590410925A0484E080935F04D0E0C0E075
:1044C0006AE671E0CE018D509C4F0E945A122696EA
:1044D000CC33D105A9F70FE214E0D0E0C0E06AE6E2
:1044E00071E0CE018D509C4F0E947811F80111921D
:1044F00011928F012696CC33D10589F787E494E099
:104500009093F2038093F10386E691E09093060680
:10451000809305061092070610920806109209066D
:1045200010920A06DF91CF911F910F91FF90EF90AB
:10453000DF90CF900895CF93DF93CDB7DEB7C35907
:10454000D1090FB6F894DEBF0FBECDBF789484B505
:10455000826084BD84B5816084BD85B5826085BD7F
:1045600085B5816085BD80916E00816080936E000D
:1045700010928100809181008260809381008091FF
:1045800081008160809381008091800081608093B0
:1045900080008091B10084608093B1008091B00070
:1045A00081608093B00080917A00846080937A006B
:1045B00080917A00826080937A0080917A00816095
:1045C00080937A0080917A00806880937A001092BC
:1045D000C100E0912E03F0912F0382E08083E091EF
:1045E0002A03F0912B031082E0912C03F0912D030C
:1045F00080E1808310923603E0913203F09133031F
:1046000086E08083E0913003F09131038081806106
:104610008083E0913003F091310380818860808352
:10462000E0913003F0913103808180688083E091D4
:104630003003F091310380818F7D808306E611E0A5
:104640001A83098380911C0190911D01A0911E0184
:10465000B0911F018B839C83AD83BE83CE010196F5
:104660000E940B1661E672E08EE193E00E94380E24
:104670001A8309831B821C821D821E8280E591E0C1
:104680000E942D0144E050E0BE016D5F7F4F8FE03E
:1046900090E00E94E0146EE173E0CE0101960E946A
:1046A000930E68E671E08EE193E00E94380E63E3BA
:1046B00076E187E494E00E948F1B66E672E0CE010B
:1046C00001960E945A12BE016F5F7F4F8BE692E106
:1046D0000E94CF11CE0101960E94F1106CE672E0AB
:1046E000CE0101960E945A12BE016F5F7F4F86EB8A
:1046F00093E10E94CF11CE0101960E94F11065E76F
:1047000072E0CE0101960E945A12BE016F5F7F4F88
:1047100085E29FE10E94CF11CE0101960E94F11027
:1047200060E872E0CE0101960E945A12BE016F5FEE
:104730007F4F8CEC9FE00E94CF11CE0101960E942A
:10474000F1108091F1039091F203DC01ED91FC9165
:104750000684F785E02D63E376E109950E947806EB
:104760008091D4059091D5052091D6053091D7053B
:104770008217930711F00E940E018091D605909147
:10478000D7052091D4053091D5052817390711F0A8
:104790000E940E010E94780660E084ED95E00E9480
:1047A0008B0361E084ED95E00E94970365E070E083
:1047B00080E090E00E94E5014CE060E084ED95E04F
:1047C0000E9423054FE564E084ED95E00E942305F7
:1047D00066E084ED95E00E946605877D182F1062E3
:1047E0008BE990E0A0E0B0E08093E4059093E505CC
:1047F000A093E605B093E705412F66E084ED95E0D0
:104800000E94230566E084ED95E00E94660518137A
:1048100003C081E08093DA0566E084ED95E00E94B4
:10482000660566E084ED95E00E94660545E550E08A
:1048300060E070E04093E4055093E5056093E60581
:104840007093E705482F477D66E084ED95E00E9470
:10485000230566E084ED95E00E94660584ED95E011
:104860000E94B20380E50E94B50383E70E94B5036E
:1048700084ED95E00E94AF0340E06DE184ED95E0AA
:104880000E94230540E06CE184ED95E00E94230541
:104890001092DC0540E767E084ED95E00E94230577
:1048A0004CE465E084ED95E00E94230562EE84ED22
:1048B00095E00E940D0584ED95E00E94200584EDB1
:1048C00095E00E94910560E084ED95E00E94660508
:1048D000482F4E7F60E084ED95E00E942305109202
:1048E0009504109294048091910490919204FC019B
:1048F000208131812F3F310509F4FAC022813381B3
:104900002F3F310509F4F4C04FE265E00E94230512
:1049100060E080919104909192040E947C05009146
:104920009104109192046DE1C8010E946605482F20
:1049300044606DE1C8010E9423056CE1C8010E943A
:104940006605482F4F636CE1C8010E94230581E092
:10495000D80118968C93809194049091950466E008
:1049600070E00E94602F482F440F4B5FB0E14B9FD7
:10497000A0011124456064E080919104909192041B
:104980000E94230589E190E0A0E0B0E080936304F9
:1049900090936404A0936504B09366048BE490E064
:1049A0009093680480936704209194043091950457
:1049B00040E08FEF9FEFB90168237923672B39F02F
:1049C00013E0880F991F1A95E1F74F5FF4CF4093DA
:1049D0009304809590959093D3058093D205B3E08E
:1049E00096958795BA95E1F7A901482359235093E5
:1049F000D0054093CF05009759F0F3E03695279501
:104A0000FA95E1F7A3E096958795AA95E1F7F3CF9C
:104A10002093D10576E0F72E66246394712C0091E3
:104A2000910410919204FF2009F45FC0FA946F2D55
:104A300090E080E00E942506EB962FAFEB97EC9676
:104A40003FAFEC97ED964FAFED97EE965FAFEE97D9
:104A5000EF966FAFEF97C158DF4F7883CF57D040B5
:104A6000C058DF4F8883C058D040CF57DF4F98835E
:104A7000C158D040CF2CD12CF601E259FE4F5F0136
:104A8000F1101BC3D8011E964C9150E0BE01665830
:104A90007F4FC80109960E944B30F5016491D801FF
:104AA0001E962C91AE0146585F4FC8010E943E05EC
:104AB000F601E859FE4F6491D80117964C91C80150
:104AC0000E94230562E0C8010E946605F601EE59C6
:104AD000FE4FE491A30101C0440FEA95EAF7482B89
:104AE00062E0C8010E9423059ACFC8010E94DF0539
:104AF0001E01B5E02B0E311C8091F1039091F20361
:104B0000DC01ED91FC91028CF38DE02D0995092ECD
:104B1000000CAA0BBB0B181619061A061B060CF084
:104B200029C12091F1033091F203AC01BD0147345A
:104B300051056105710524F046E450E060E070E045
:104B4000D901ED91FC91048CF58DE02DBE016F5FD4
:104B50007F4FC90109958430910574F2E9812E2FA8
:104B60002295269526952370213031F62E2F30E0A0
:104B700064E0359527956A95E1F7B22FB370DB2E87
:104B80002896BFAF2897EF702C96EFAF2C972A810D
:104B900029962FAF29972B813C8123273227232762
:104BA00061963FAF2EAF6197E111A9C02B961FAE62
:104BB0001EAE2B97F0E03496E817F9070CF074C09E
:104BC00021E030E02C0F3D1F820F931FE20FF31FF7
:104BD000DE01A95BBF4FF12CE12C10E000E0208149
:104BE0002F3F09F44AC0E817F90708F046C0BC0196
:104BF0006E1B7F0B09F4BEC0422F42954F702F7081
:104C0000C22E4D3009F083C06130710509F4B2C085
:104C1000218130E0235F3F4F319652E0B52E4DE0C9
:104C2000C4128DC0B394B616170611F008F0A2C0D6
:104C3000418150E0435F5F4F3196BA016F5F7F4F14
:104C40006E0F7F1F8617970708F494C05E2D520FD2
:104C50001B965C931B9731961E96FC93EE931D97C3
:104C60001C964C931C97E20EF31E0F5F1F4F149679
:104C7000FB010A30110509F0B2CF62960FAF6297BF
:104C80009F012F5F3F4F2817390708F0C4C04081AC
:104C90004F3F09F0C0C02E963FAF2EAF2E97821B1C
:104CA000930B2F968FAF2F9722E0D212BCC00091AA
:104CB0004304109144048091F1039091F203DC01CC
:104CC000ED91FC9102A0F3A1E02D09957C0160918A
:104CD000F1037091F203DB01ED91FC9100A0F1A1D1
:104CE000E02DCE018E579F4F0995A701BE016E574B
:104CF0007F4FCE01895B9F4FF8010995FDCEE930CA
:104D000008F0FACE2B963FAE2EAE2B9753CF242F22
:104D100030E04E3071F46330710560F121813281F1
:104D2000322723273227235F3E4F329643E0B42EAB
:104D300076CF2F303105F1F0BB24B39470CF4C2DDA
:104D400050E00F2EFEE0AF2EF02DCA100FC0B3942E
:104D5000B394B616170609F068F4418152815427BE
:104D600045275427435F5E4F329667CF4F3051053A
:104D700009F063CF84EBE82E82E0F82E93E0C92E91
:104D800091E0D92E80913105909132058759944058
:104D900009F008F485C1CE0101960E94F21E882315
:104DA00009F47BC163E972E08EE193E00E94380E62
:104DB00049815A816B817C812AE08EE193E00E94D7
:104DC000470E68E671E08EE193E00E94380E1F8185
:104DD00008858D819E818130910509F44AC1029731
:104DE00009F056C169EA72E08EE193E00E94380E44
:104DF000812F902F0E94DD0E0F931F93FF92EF9251
:104E0000DF92CF920E947D300F900F900F900F9005
:104E10000F900F90B7CF2E961FAE1EAE2E972F96E7
:104E20001FAE2F9741CF6AE671E0CE0182579F4FA8
:104E30000E945A129E01295B3F4F7901D12CC12C4F
:104E400062968FAD62978C151D0409F00CF44AC070
:104E5000D7011B968C911B978B30E9F51C960C9112
:104E60001C970023C1F16DB67EB610E0C801019613
:104E7000EDB7FEB7E81BF90B0FB6F894FEBF0FBEF7
:104E8000EDBF2DB73EB72F5F3F4F59011D966D9176
:104E90007C91A801C9010E944B30F501E00FF11F80
:104EA0001082CE56DF4F88819981C259D040892B1C
:104EB00039F061E972E0CE0182579F4F0E944D1197
:104EC000B501CE0182579F4F0E944D110FB6F89445
:104ED0007EBE0FBE6DBE3FEFC31AD30A44E0E40EA0
:104EE000F11CAECFCE57DF4F19821882C258D04086
:104EF000CC57DF4F19821882C458D040CA57DF4FB1
:104F000019821882C658D040BE0162577F4FCE0129
:104F10008E579F4F0E94B811CE018E579F4F0E940F
:104F200070108C01CE018E579F4F0E94F110012B03
:104F300009F056C061964EAC5FAC61978091F10369
:104F40009091F203DC01ED91FC9102A0F3A1E02D20
:104F500009953C016091F1037091F203DB01ED9141
:104F6000FC9100A0F1A1E02DCE0188579F4F09953B
:104F7000E6E6F1E0CE57DF4FF983E883C258D04030
:104F8000C657DF4F88819981AA81BB81CA58D0401A
:104F9000CC57DF4F88839983AA83BB83C458D04002
:104FA0001F921F92912C812CAA24AA94BA2C34E827
:104FB000C32ED12CEE24E394F12C10E000E030E07D
:104FC00020E0A201B301CE018E579F4F0E947209CB
:104FD0000F900F90CE0182579F4F0E94F1108CCD01
:104FE000C857DF4F19821882C858D040C657DF4FC4
:104FF00019821882CA58D040C457DF4F19821882CC
:10500000CC58D040BE0162577F4FCE0188579F4F8A
:105010000E94B811CE0188579F4F0E9470108C01DA
:105020008091F1039091F203DC01ED91FC9102A0DB
:10503000F3A1E02D09957C016091F1037091F203D9
:10504000DB01ED91FC9100A0F1A1E02DCE018E5786
:105050009F4F0995A701BE016E577F4FCE01895B17
:105060009F4FF8010995CE0188579F4F0E94F1107C
:10507000B1CF67EB72E08EE193E00E94380E812F92
:10508000902F0E94DD0E109302010E9434137ACEFD
:105090008DEC92E00E94150F75CE8FED92E0FACF65
:1050A00080E090E0892B09F427CD0E948F028823AD
:1050B00009F41ECD0E9400001BCDE1E0FE1609F4AC
:1050C000ECCCF501649121E0EDCCCF93DF93CFE2FE
:1050D000D4E02697CE010E94F11083E0C33FD807A9
:1050E000C1F789EF95E0DF91CF910C94F110EF9229
:1050F0000F931F93CF93DF93E80134E047FD34E132
:10510000042E000C550B57FF03C0519541955109D2
:10511000E32E022F242FAE010E94DF2BCE01DF9160
:10512000CF911F910F91EF9008950F931F93CF93FD
:10513000DF938230910510F482E090E0E0910D065B
:10514000F0910E0630E020E0B0E0A0E0309799F456
:105150002115310509F44AC0281B390B24303105CB
:10516000D8F58A819B816115710589F1FB019383D3
:105170008283FE0111C04081518102811381481751
:105180005907E0F04817590799F4109761F0129603
:105190000C93129713961C933296CF01DF91CF9107
:1051A0001F910F91089500930D0610930E06F4CFF2
:1051B0002115310551F04217530738F0A901DB01E1
:1051C0009A01BD01DF01F801C1CFEF01F9CF909342
:1051D0000E0680930D06CDCFFE01E20FF31F8193E3
:1051E00091932250310939832883D7CF20910B0620
:1051F00030910C06232B41F420910B0130910C01CE
:1052000030930C0620930B062091090130910A017E
:105210002115310541F42DB73EB740910D01509154
:105220000E01241B350BE0910B06F0910C06E217E2
:10523000F307A0F42E1B3F0B2817390778F0AC01B9
:105240004E5F5F4F2417350748F04E0F5F1F509396
:105250000C0640930B06819391939FCFF0E0E0E022
:105260009CCFCF93DF930097E9F0FC013297138234
:105270001282A0910D06B0910E06ED0130E020E003
:105280001097A1F420813181820F931F20910B068A
:1052900030910C062817390709F061C0F0930C060D
:1052A000E0930B06DF91CF910895EA01CE17DF0757
:1052B000E8F54A815B819E0141155105B1F7E9018D
:1052C000FB83EA8349915991C40FD51FEC17FD0761
:1052D00061F4808191810296840F951FE901998381
:1052E0008883828193819B838A83F0E0E0E0129639
:1052F0008D919C9113970097B9F52D913C91119741
:10530000CD010296820F931F20910B0630910C065F
:105310002817390739F6309751F510920E0610927A
:105320000D06B0930C06A0930B06BCCFD383C283AB
:1053300040815181840F951FC817D90761F44E5FD2
:105340005F4F88819981480F591F518340838A811B
:105350009B81938382832115310509F0B0CFF093AF
:105360000E06E0930D069ECFFD01DC01C0CF138237
:105370001282D7CFFC0188279927E8942191203207
:10538000E9F3293010F02E30C8F32B3241F02D32E2
:1053900039F4689404C00E94E329820F911D219181
:1053A00020532A30C0F31EF4909581959F4F0895A5
:1053B000BB274A3031F4992322F4BDE290958195C0
:1053C0009F4F0C94EC297AE0979F902D879F802D1A
:1053D000910D11240895BB27FB015527AA27880F9B
:1053E000991FAA1FA41710F0A41B83955051B9F759
:1053F000A05DAA3308F0A95DA193009779F7B111D8
:10540000B1931192CB010C942C2EABE0B0E0EBE009
:10541000FAE20C94072F7C013B018A01FC01178200
:105420001682838181FFC8C1CE0101965C01F7011C
:105430009381F30193FD859193FF81913F0188232F
:1054400009F453C1853239F493FD859193FF81911D
:105450003F01853229F4B70190E00E943C2EE7CF4E
:10546000912C212C312CFFE1F31538F08B3211F106
:1054700090F4803209F1833229F137FC3CC020EDF1
:10548000280F2A3050F536FE20C08AE0989E200D65
:105490001124922E06C08D3291F0803371F76894FA
:1054A00030F8F30193FD859193FF81913F018111C4
:1054B000DACF21C0689431F8689432F8F2CF68945A
:1054C00033F8EFCF689434F8ECCFEAE02E9E200D4D
:1054D0001124222E689435F8E4CF8E3229F436FC5C
:1054E00004C1689436F8DDCF8C3619F4689437F827
:1054F000D8CF8836B1F2982F9F7D95549330E0F045
:105500008336A1F18337C1F1833509F063C02801E7
:10551000F2E04F0E511CF801C080D180692D70E07F
:1055200036FC02C06FEF7FEFC6010E94162E4C01C1
:10553000689437F882010AC00C5F1F4FFFE3F983BC
:1055400088248394912C6501E89437F833FE2DC0AC
:10555000522C8114910471F5552009F468CFB701DC
:1055600080E290E00E943C2E5A94F6CFF8018081B0
:1055700089830E5F1F4FE4CF2801F2E04F0E511CCC
:10558000F801C080D180692D70E036FC02C06FEF59
:105590007FEFC6010E94212E4C018201D5CFB701B9
:1055A00080E290E00E943C2E2A942814190409F00D
:1055B000B0F7CECFF60137FC859137FE81916F01B0
:1055C000B70190E00E943C2E51105A94F1E08F1ADE
:1055D0009108BFCF843619F0893609F077C0F801F9
:1055E00037FE6BC060817181828193810C5F1F4F98
:1055F000F32DFF763F2E97FF09C09095809570950B
:1056000061957F4F8F4F9F4F689437F82AE030E0C5
:10561000A5010E946C2EC82ECA188C2C432C36FE75
:105620000CC0E89440F8C91440F434FE05C032FCC4
:1056300003C0F32DFE7E4F2E892C44FE95C0FE0143
:10564000EC0DF11D8081803309F087C0242D297E67
:10565000422E842D8870582E43FC95C040FE8FC08A
:105660009C2C821418F42C0C922C981844FE91C097
:10567000B70180E390E00E943C2E42FE09C088E71B
:1056800090E041FE02C088E590E0B7010E943C2E08
:10569000C91408F48AC0CA94D12C9FEFC91AD90A38
:1056A000CA0CDB1CF60182916F01B70190E00E94E9
:1056B0003C2EAC14BD04B1F74FCF60817181072E31
:1056C000000C880B990B0E5F1F4F92CFD32CE894E0
:1056D000D4F82AE030E0853739F1232D297FD22E06
:1056E0008F3601F148F48835A9F0F701868197815A
:1056F0002B96E2E10C94232F803749F08837A9F7E5
:10570000D4FE02C06894D2F820E130E00DC0689465
:10571000D4F8F6CF34FE03C0822F8660D82E20E165
:1057200032E002C028E030E0F801D7FE0FC060810F
:105730007181828193810C5F1F4FA5010E946C2EA5
:10574000C82ECA183D2CE89437F867CF6081718164
:1057500090E080E00E5F1F4FF0CF42FC02C08394C8
:1057600078CF8394839475CF842D867809F471CF94
:10577000F6CFB70180E290E00E943C2E8394821421
:10578000C0F3512C73CF522C5818821408F46ECFEA
:10579000F8CF842D867809F47BCF8BE241FE80E23E
:1057A00047FC8DE2B70190E071CFB70180E390E054
:1057B0000E943C2E9A946CCF8FEF9FEF99CFA9E077
:1057C000B0E0E5EEFBE20C940D2F6A01F22EB02E54
:1057D000102FFBE3AF2EA01608F41BE31F5F012F71
:1057E00027E0AE014F5F5F4F0E943E2DBC018981D3
:1057F000982F9970913009F43FC09BE2E1FC04C0FE
:105800009E2D9170E0FC3AC05E2D5071E82FE8703B
:1058100083FF46C084E0911101C083E0EF2DE81BB7
:105820008F1508F0E0E0D6018E2F20E2552351F1CC
:10583000992329F0D6019C93C60101966C0196012B
:105840002D5F3F4FE2FE24C08EE4D6018C9391E49D
:1058500011969C93119712968C93D9018E2F90E2FA
:1058600081111BC0E20FF32FF11D10828EEF9FEF0D
:105870002996ECE00C94292F9DE2C6CF90E2C4CF8C
:105880002D9381508111FCCFCE0ED11CE0E0D0CF02
:105890008EE6D6018C9391E6DBCF9D938150E0CFCD
:1058A000482F447082FF3DC084E0911101C083E025
:1058B0008F1510F4EF2DE81BD6018E2F20E2552313
:1058C00009F1992329F0D6019C93C60101966C0138
:1058D00096012D5F3F4FE2FE1BC089E4D6018C93F9
:1058E0008EE411968C93119786E412968C93D901CD
:1058F0008E2F90E2882309F4B5CF9D938150FACF83
:105900002D9381508111FCCFCE0ED11CE0E0D9CF78
:1059100089E6D6018C938EE611968C93119786E6D4
:10592000E4CF9B0177FF02C030E020E0A1E0B0E0CF
:10593000911102C0B0E0A0E0F9013196AE0FBF1F97
:105940008B2C912CBB2009F461C05401EFEFAE1AEF
:10595000BE0AAA0DBB1DFA161B0619F014F04F2D36
:105960004A1B511188C0E3FC59C07601A42FB0E254
:10597000A1114FC0C40ED11C992309F45BC040E0B3
:10598000D6011196F60190836D01552309F448C0A4
:10599000012F060F9A81582F507184FF03C0913355
:1059A00009F4015010160CF047C0093008F008E067
:1059B000EEE2FE2E5B01A01AB1088501919481945C
:1059C00091082F3F320729F4D601FC92F601319657
:1059D0006F016217730794F1021713077CF5DB015F
:1059E000A21BB30BAA24A394B12CAC0EBD1EAA0D0E
:1059F000BB1D11968C9121503109D60111962815A5
:105A00003905F4F0F60180836D01DBCFB12CA12CB8
:105A1000A0CFF701B1937F01A150AACF9111B0CFD0
:105A2000D601942F50E302C05D9391509111FCCFA9
:105A3000C40ED11C40E0ACCF01E0BACF80E3DBCF95
:105A40006217730731F4963388F4953311F45523B4
:105A500069F0F6018083FD01842F90E2811108C076
:105A6000A40FB11D1C9290E080E002CF81E3F1CF42
:105A700091938150F3CF911183CF8ACF283008F0D2
:105A800027E03327DA01990F311D87FD91600096D9
:105A90006105710539F432602E5F3D9330E32A953C
:105AA000E1F708959F3F30F080387105610509F0F6
:105AB0003C5F3C5F3D93913008F08068911DDF931F
:105AC000CF931F930F93FF92EF92192F987F969584
:105AD000E92F96959695E90FFF27EE53FF4F9927EB
